:07001B007B007A0079452209
:100CBC0012101B7B007A007949E4FD120C637B0057
:100CCC007A00794912089A12001B7D01120B451209
:100CDC00001B120731E4F508C3E508940A748094EC
:100CEC00805015AF087E00120FD38F0912001BAD78
:0A0CFC0009120BA8050880E080FE35
:03101B00D2AF222F
:0C0FFD001202D1AB68AA69A96A02028B3B
:100A4D0012028BFF540714603704706AEFC4540F01
:100A5D0030E004D2888002C28812028BFFC4135486
:100A6D000730E004D2B88002C2B8D2B2EF1313132C
:100A7D00541F30E004D2A88002C2A8435F01803920
:100A8D0012028BFFC4540F30E004D28A8002C28A56
:100A9D00EFC413540730E004D2BA8002C2BAD2B305
:100AAD0012028B131313541F30E004D2AA8002C21A
:0C0ABD00AA435F0280037F01227F002219
:100F0A00EF14601004701AC288C2B8D2B2C2A853D1
:100F1A005FFE8010C288C2B8D2B2C2A8535FFD80F9
:070F2A00037F01227F00227A
:100E85008B628A63896412028B44081202D1AB62B9
:100E9500AA63A96412028B5407146007047008D270
:0D0EA500A88007D2AA80037F01227F0022CF
:100EB2008B658A66896712028B54F71202D1AB6581
:100EC200AA66A96712028B5407146007047008C24D
:0D0ED200A88007C2AA80037F01227F0022B2
:100DDC008B688A69896AED14601404702C121000F7
:100DEC0054F8120FFD4408120FFD4410801112101C
:100DFC000054F84401120FFD54F7120FFD54EF127A
:0F0E0C000FFD54DF1202D180037F01227F0022ED
:100C07001202D1AB0AAA0BA90C02028BAC3FAD4072
:100C1700E41201D17B007A247974784912012FE418
:100C2700FBFA7961784912002602020A9000010254
:100C370002A4FCFDAB44AA43A942A841C302049500
:100C4700AB0AE50C2401F9E4350BFA02028B90009C
:0C0C570002120305AEF0F58AEEF58C22C7
:10089A0012028BFF5407600302093B120C33FE302D
:1008AA00E00AE58954FC4401F5898008E58954FC8D
:1008BA004402F589EFC4131313540130E005438948
:1008CA000480035389FB12028BFFC4540F30E005E6
:1008DA0043890880035389F7EFC413540730E005AE
:1008EA00438F018003538FFE12028BFDC4131354EE
:1008FA000330E005438E808003538E7FEEC31330AE
:10090A00E004D2A98002C2A9120C331313543F3057
:10091A00E004D2B98002C2B9120C55ED1313135474
:10092A001F30E006C28DD28C8002C28C43600180E7
:07093A00037F01227F002270
:10000300EF700FC28C538FFEC2A95389F05360FE69
:0800130080037F01227F00221F
:100F31008B6B8A6C896D12028B44081202D1AB6BE8
:100F4100AA6CA96D12028B54077006C28DD28C80D7
:070F5100037F01227F002253
:100F58008B6E8A6F897012028B54F71202D1AB6EB6
:100F6800AA6FA97012028B54077004C28C80037F89
:050F780001227F0022B0
:0B10090012028B54077003120C5522DA
:0A0AC9008C3F8D408B3C8A3D893E36
:100AD300120C33540114602F047064E475441575CB
:100AE3004301F542F541AE3FAF40120C3950037F4D
:100AF3000222120C13C3E49FFB74019400FAEBFE71
:100B03002400FFEA3E802A7544C7754315754201E8
:100B1300754100AE3FAF40E4120C3950037F02220F
:100B2300120C138F448E438D428C41C3E49FFFE428
:100B33009EAB3CAA3DA93E9000028FF012033D7F7D
:010B430000B1
:010B4400228E
:040D06008C748D75E7
:100D0A00120C33540114602B047038D3E57594FF28
:100D1A00E574940040037F0322AD75EDFFC3E49FA1
:100D2A00FFEFFEC3E49DCD74019400CD2400FFEDD6
:100D3A003E8008C3E49575FFE495749000028FF035
:050D4A0012033D7F00D3
:010D4F002281
:100C63008B0A8A0B890CED704A120C0A54F8120C89
:100C7300074408120C0754EF120C074420120C0708
:100C830054BF1202D1120C4754FE120C07547F12A8
:100C930002D1AB0AAA0BA90C120C33900002E4F5A3
:100CA300F012033D120C4754FD1202D154FB120201
:090CB300D180037F01227F0022A1
:06101400017100017200F1
:1007EA001202D1AB0DAA0EA90F02028B1202D1ABD3
:1007FA000AAA0BA90C02028BE47FE87E03FDFC1215
:10080A00036AAB13AA12A911A810227F14FEFDFCD9
:10081A00AB22AA21A920A81F020495FD7401940005
:10082A00FCEDFE2400FFEC3EAB0DAA0EA90F9000D2
:10083A00028FF002033DE50F2401F9E4350EFA02B6
:10084A00028BE47F14FEFDFCAB26AA25A924A8236B
:10085A0022AF13AE12AD11AC10D302049512028B63
:10086A00FF540714228D99EF131313541F22740196
:10087A002559F559E43558F558229000011202A479
:10088A001313540722AB57AA58A95912028BFD22F7
:1007310012086760030207E412087130E004D2ACCA
:100741008002C2AC12028BFFC4540F30E004D2BC51
:100751008002C2BCEFC413540730E004D29C800273
:10076100C29C12028BFFC41313540330E00543876C
:1007710080800353877FEFC4131313540130E004C7
:10078100D29D8002C29D9000011202A45403146004
:100791000F14601614601D2403702153983F801CB0
:1007A100E598543F4440F5988012E598543F4480C1
:1007B100F5988008E598543F44C0F59853897F53D4
:1007C10089BFE58954CF4420F589900002120305C1
:1007D100AEF0F58BEEF58DC28FD28E436101436091
:0907E1000280037F01227F002247
:100F7D00EF147018C2ACC2BCC29C53877FC29D5384
:100F8D00983FC28E5361FE5360FD80037F01227F27
:020F9D00002230
:0E04A6008B0D8A0E890F8F138E128D118C1004
:1004B400E514FD7C00D394057480948040037F038D
:1004C40022E514540725E025E0FFAB0D1208405443
:1004D400E34F1202D1ED4CAB0D700912084054FCED
:1004E4004401800512084044031202D11207ED545E
:1004F4007F1207EA44201207EA44081207EA54EF7D
:100504001202D112080CE47F807E70FDFC1203F508
:100514008F1512080CE4FF7EE1FDFC1203F58F1623
:10052400AF15AB07E4FAF9F87F807E70FDFC120D7D
:10053400988F1A8E198D188C17AF16AB07E4FAF939
:10054400F8FF7EE1FDFC120D988F1E8E1D8D1C8C14
:100554001BAB1AAA19A918A81712085B401AE51AA6
:100564009513F522E5199512F521E5189511F52055
:10057400E5179510F51F8019C3E513951AF522E5C3
:10058400129519F521E5119518F520E5109517F543
:100594001FAB1EAA1DA91CA81B12085B401AE51E4E
:1005A4009513F526E51D9512F525E51C9511F52401
:1005B400E51B9510F5238019C3E513951EF526E573
:1005C40012951DF525E511951CF524E510951BF5EF
:1005D40023AB22AA21A920A81F1208021203F58F17
:1005E400228E218D208C1F1208521208021203F54C
:1005F4008F268E258D248C23E4D3120815400C12EB
:10060400084CD312049540037F0222E4C312081558
:10061400500F1207ED54BF1202D1C3E4951512080E
:100624002512084CC3120495500F1207ED444012D2
:0B06340002D1C3E495161208257F00D8
:01063F002298
:100BA80012028B540714705112088424FE60161424
:100BB800601F14602024037020ED30D004C29B8095
:100BC8001BD29B8017ED30D004D29B800FC29B8034
:100BD8000BD29B8007C29B80037F03228D99120250
:100BE8008B131313541F30E009757101E571600C04
:0F0BF80080FA3099FDC29980037F01227F00228D
:100F9F00120867701612086F30E009757101E5715C
:100FAF00600C80FA3099FDC29980037F01227F0087
:010FBF00220F
:100EDF001208677020E55E6004D29B8002C29B12ED
:100EEF00086F30E009757101E571600C80FA309977
:0B0EFF00FDC29980037F01227F0022CA
:100D50008B548A558956120884FF7E00D394007400
:100D6000809480500AC3EF940574809480501312CD
:100D7000088F6021AB54AA55A956120BA812087807
:100D800080ED12088F600EAB54AA55A956120F9F22
:080D900012087880ED7F0022BB
:060B45008B0A8A0B890CEB
:100B4B00ED1470531207F954F844011202D1AB0A99
:100B5B00AA0BA90CE4F5147F807E25FDFC1204A6DC
:100B6B00EF6001221207F944081207F654EF12073F
:100B7B00F644201207F6547F1202D1AB0AE50C247F
:100B8B0001F9E4350BFA12028B54FC44011202D129
:0C0B9B0054E31202D180037F01227F008E
:010BA700222B
:03002300020E5278
:100E5200C0E0C0D0309905C29975710030981FC2A8
:100E620098E599B573120572C3E57294C8748094BB
:100E720080400875C7608003757200859973D0D071
:030E8200D0E0328B
:1009CD00E537253BFFE536353A8F82F5831202A4D4
:1009DD00FFE535253BFDE534353AFC74002DF582F8
:1009ED0074003CF583EFF0053BE53B22E533253BF9
:1009FD00FFE532353AFE120FD37400253BF58274B4
:100A0D0000353A22AF33AE32120FF0C3E5399533CC
:100A1D00F535E5389532F534E4F53AF53B228FC4DA
:100A2D008EC375C65A75C6A522F583E0FD120FC09B
:100A3D00053BE53B22E533253BFFE532353AFE220A
:0E0FE200E4F5C7F5C5F5C675C3FF75C4FF225B
:0D0FF00075C78375C503120A2B00020FE2BE
:100FC00075C78375C5028FC48EC38DC2120A2F00E8
:030FD000020FE22B
:0F0FD30075C78375C501120A2B00AFC2020FE26A
:0A0E1B008E4D8F4E8B4F8A50895187
:100E2500E4FDFCC3ED9553EC95525020E54E2DFFA6
:100E3500E54D3CFE120FD3AB4FAA50A9518D828CC4
:0C0E450083EF1202E30DBD00010C80D70A
:010E5100227E
:10064000E4F536F5378E388F39852C2E852D2FE53C
:1006500038C313FD7C007F0025E0FEF5328F33E4C4
:100660002FFFEE3402FEC3EF9539F531EE9538F5E4
:1006700030D3E52F9531E52E95305047E4F53AF526
:100680003B1209F91209F07002053AC3E53A9402E7
:1006900040EF120A11C3E53B952FE53A952E50091C
:1006A0001209CD70F0053A80ECE4F53AF53B120AF8
:1006B00042120A06120A367002053AC3E53A94025B
:1006C00040EC22E4F53AF53B1209F91209F0700208
:1006D000053AC3E53A940240EF120A11C3E53B958F
:1006E00031E53A953050091209CD70F0053A80ECA9
:1006F000E4F53AF53B120A42120A06120A36700273
:10070000053AC3E53A940240ECE5312539F539E57F
:10071000303538F538C3E52F9531F52FE52E953076
:10072000F52EE5312537F537E5303536F536020655
:010730004F79
:10002600EC4D6011E8497017ED33EC3304600DE4D4
:10003600FCFFFEFD22E933E8330470F80202761273
:10004600024158046009E4CC248150062850090274
:10005600028028400302027DC0E0EB4A7044B9806A
:1000660006D0E0FB02026CEF4E701CBD8008EBFF71
:10007600EAFEE9FD80EBE98DF0A4FEE5F002010F52
:10008600E9CDF9EAFEEBFFEF89F0A4FCE5F0CE89B5
:10009600F0A42EFFE435F0CD89F0A42DFEE435F072
:1000A6008067EF4E7005BD80D780C3EF8BF0A4ACA0
:1000B600F0EE8BF0A42CFCE435F0F8EF8AF0A42CDB
:1000C600E5F038FCE433CB8DF0A42CFCE5F03BF8EE
:1000D600EE8AF0A42CFCE5F038F8E433CF89F0A4DE
:1000E6002CFCE5F038CF3400CE89F0A42FFFE5F0E4
:1000F6003EFEE433C98DF0A42EFEE5F039CD8AF03C
:10010600A42FFFE5F03EFEE43DFD33D0E0FB5007B3
:100116000BBB000F020280EC2CFCEF33FFEE33FE2C
:06012600ED33FD0202585A
:10012C00020280EC5D046005E8590470030202765B
:10013C00120241580460F6EC4860F2EC7004FDFECB
:10014C00FF22C860DB2481C85009C39860025006A6
:10015C0002027D9850CAF582E9294B4A7005AB82A0
:10016C0002026C75F0007C1A7880C3EF9BEE9AED5E
:10017C0099400DC3EF9BFFEE9AFEED99FDE842F01E
:10018C00DC23ACF0D0E0FFD0E0FED0E0FDAB822071
:10019C00E7101BEB60BAEC2CFCEF33FFEE33FEEDFB
:1001AC0033FD020258E803F830E705C0F075F000A3
:1001BC00EF2FFFEE33FEED33FD40B830E7C280AADF
:1001CC0075F020800E75F010800575F0087D007EAE
:1001DC00007F003392D530D503120487EC334010E6
:1001EC00EF33FFEE33FEED33FDEC33FCD5F0ED22B7
:0E01FC00E5F0247EA2D513CC92E7CDCEFF22F3
:10020A00EDD2E7CD33EC3392D524814006E4FFFEEC
:10021A00FDFC22FCE4CFCECDCC24E0501174FF804B
:10022A00EDC3CC13CCCD13CDCE13CECF13CF0470E8
:07023A00F030D5DE0204875D
:10024100E9D2E7C933E833F892D5EDD2E7CD33EC03
:0702510033FC5002B2D5227C
:10025800EC30E7100FBF000C0EBE00080DBD000407
:100268000BEB6014A2D5EB13FCED92E7FD2274FFB3
:10027800FCFDFEFF22E480F8A2D574FF13FC7D800C
:03028800E480EF20
:03000000020941B1
:0C094100787FE4F6D8FD75817502098806
:10028B00BB010689828A83E0225002E722BBFE0271
:09029B00E32289828A83E49322A4
:1002A400BB010CE58229F582E5833AF583E022500F
:1002B40006E92582F8E622BBFE06E92582F8E22259
:0D02C400E58229F582E5833AF583E4932273
:1002D100BB010689828A83F0225002F722BBFE010C
:0202E100F32206
:1002E300F8BB010DE58229F582E5833AF583E8F051
:1002F300225006E92582C8F622BBFE05E92582C8FD
:02030300F222E4
:10030500BB0110E58229F582E5833AF583E0F5F036
:10031500A3E0225009E92582F886F008E622BBFE13
:100325000AE92582F8E2F5F008E222E5832AF58359
:08033500E993F5F0A3E993221E
:10033D00F8BB0111E58229F582E5833AF583E8F0F2
:10034D00E5F0A3F0225009E92582C8F608A6F022AF
:0D035D00BBFE09E92582C8F2E5F008F22296
:10036A00E88FF0A4CC8BF0A42CFCE98EF0A42CFC32
:10037A008AF0EDA42CFCEA8EF0A4CDA8F08BF0A4B0
:10038A002DCC3825F0FDE98FF0A42CCD35F0FCEB0F
:10039A008EF0A4FEA9F0EB8FF0A4CFC5F02ECD39D4
:0F03AA00FEE43CFCEAA42DCE35F0FDE43CFC2241
:1003B90075F008758200EF2FFFEE33FECD33CDCCFB
:1003C90033CCC58233C5829BED9AEC99E58298407E
:1003D9000CF582EE9BFEED9AFDEC99FC0FD5F0D65B
:1003E900E4CEFBE4CDFAE4CCF9A88222B800C1B985
:1003F9000059BA002DEC8BF084CFCECDFCE5F0CBC3
:10040900F97818EF2FFFEE33FEED33FDEC33FCEBFB
:1004190033FB10D703994004EB99FB0FD8E5E4F9B6
:10042900FA227818EF2FFFEE33FEED33FDEC33FCA3
:10043900C933C910D7059BE99A4007EC9BFCE99A97
:10044900F90FD8E0E4C9FAE4CCFB2275F010EF2FDC
:10045900FFEE33FEED33FDCC33CCC833C810D707DC
:100469009BEC9AE899400AED9BFDEC9AFCE899F817
:0E0479000FD5F0DAE4CDFBE4CCFAE4C8F922AA
:100D9800C2D5E830E70FB2D5E4C39BFBE49AFAE486
:100DA80099F9E498F8EC30E717B2D5120DCE120392
:100DB800F5E4C39BFBE49AFAE499F9E498F8800314
:100DC8001203F530D50DE4C39FFFE49EFEE49DFDBC
:040DD800E49CFC2279
:0E048700C3E49FFFE49EFEE49DFDE49CFC2286
:10049500EB9FF5F0EA9E42F0E99D42F0E89C45F0BD
:0104A5002234
:10094D00020CBCE493A3F8E493A34003F68001F2F8
:10095D0008DFF48029E493A3F85407240CC8C333AB
:10096D00C4540F4420C8834004F456800146F6DF7A
:10097D00E4800B0102040810204080901014E47EE6
:10098D00019360BCA3FF543F30E509541FFEE4936F
:10099D00A360010ECF54C025E060A840B8E493A336
:1009AD00FAE493A3F8E493A3C8C582C8CAC583CA61
:1009BD00F0A3C8C582C8CAC583CADFE9DEE780BE19
:01101A0000D5
:00000001FF
