BL51 BANKED LINKER/LOCATER V6.22.2.0                                                    05/28/2021  22:01:34  PAGE 1


BL51 BANKED LINKER/LOCATER V6.22.2.0, INVOKED BY:
C:\KEIL_V5\C51\BIN\BL51.EXE .\Objects\main.obj, .\Objects\hal_config.obj, .\Objects\hal_exti.obj, .\Objects\hal_timer.ob
>> j, .\Objects\hal_uart.obj, .\Objects\hal_eeprom.obj TO .\Objects\ecbm_hal PRINT (.\Listings\ecbm_hal.m51) RAMSIZE (25
>> 6) DISABLEWARNING (16)


MEMORY MODEL: SMALL WITH FLOATING POINT ARITHMETIC


INPUT MODULES INCLUDED:
  .\Objects\main.obj (MAIN)
  .\Objects\hal_config.obj (HAL_CONFIG)
  .\Objects\hal_exti.obj (HAL_EXTI)
  .\Objects\hal_timer.obj (HAL_TIMER)
  .\Objects\hal_uart.obj (HAL_UART)
  .\Objects\hal_eeprom.obj (HAL_EEPROM)
  C:\KEIL_V5\C51\LIB\C51FPS.LIB (?C?FPMUL)
  C:\KEIL_V5\C51\LIB\C51FPS.LIB (?C?FPDIV)
  C:\KEIL_V5\C51\LIB\C51FPS.LIB (?C?FCAST)
  C:\KEIL_V5\C51\LIB\C51FPS.LIB (?C?CASTF)
  C:\KEIL_V5\C51\LIB\C51FPS.LIB (?C?FPGETOPN)
  C:\KEIL_V5\C51\LIB\C51S.LIB (?C_STARTUP)
  C:\KEIL_V5\C51\LIB\C51S.LIB (?C?CLDPTR)
  C:\KEIL_V5\C51\LIB\C51S.LIB (?C?CLDOPTR)
  C:\KEIL_V5\C51\LIB\C51S.LIB (?C?CSTPTR)
  C:\KEIL_V5\C51\LIB\C51S.LIB (?C?CSTOPTR)
  C:\KEIL_V5\C51\LIB\C51S.LIB (?C?ILDOPTR)
  C:\KEIL_V5\C51\LIB\C51S.LIB (?C?ISTOPTR)
  C:\KEIL_V5\C51\LIB\C51S.LIB (?C?LMUL)
  C:\KEIL_V5\C51\LIB\C51S.LIB (?C?ULDIV)
  C:\KEIL_V5\C51\LIB\C51S.LIB (?C?SLDIV)
  C:\KEIL_V5\C51\LIB\C51S.LIB (?C?LNEG)
  C:\KEIL_V5\C51\LIB\C51S.LIB (?C?ULCMP)
  C:\KEIL_V5\C51\LIB\C51S.LIB (?C_INIT)


LINK MAP OF MODULE:  .\Objects\ecbm_hal (MAIN)


            TYPE    BASE      LENGTH    RELOCATION   SEGMENT NAME
            -----------------------------------------------------

            * * * * * * *   D A T A   M E M O R Y   * * * * * * *
            REG     0000H     0008H     ABSOLUTE     "REG BANK 0"
            DATA    0008H     001FH     UNIT         _DATA_GROUP_
            DATA    0027H     0015H     UNIT         ?DT?_EEPROM_WRITE_EX?HAL_EEPROM
            DATA    003CH     0009H     UNIT         ?DT?_TIMER_SET_TIME?HAL_TIMER
            DATA    0045H     0008H     UNIT         ?DT?MAIN
            DATA    004DH     0007H     UNIT         ?DT?_EEPROM_READ_EX?HAL_EEPROM
            DATA    0054H     0006H     UNIT         ?DT?_UART_STRING?HAL_UART
            DATA    005AH     0005H     UNIT         ?DT?_UART_CHAR_9?HAL_UART
            DATA    005FH     0003H     UNIT         ?DT?HAL_CONFIG
            DATA    0062H     0003H     UNIT         ?DT?_EXTI_START?HAL_EXTI
            DATA    0065H     0003H     UNIT         ?DT?_EXTI_STOP?HAL_EXTI
            DATA    0068H     0003H     UNIT         ?DT?_EXTI_GET_CONFIGURATION_WIZARD?HAL_EXTI
            DATA    006BH     0003H     UNIT         ?DT?_TIMER_START?HAL_TIMER
            DATA    006EH     0003H     UNIT         ?DT?_TIMER_STOP?HAL_TIMER
            DATA    0071H     0003H     UNIT         ?DT?HAL_UART
BL51 BANKED LINKER/LOCATER V6.22.2.0                                                  05/28/2021  22:01:34  PAGE 2


            DATA    0074H     0002H     UNIT         ?DT?_TIMER_SET_COUNT?HAL_TIMER
            IDATA   0076H     0001H     UNIT         ?STACK

            * * * * * * *  X D A T A   M E M O R Y  * * * * * * *
            XDATA   0000H     0200H     UNIT         ?XD?HAL_EEPROM

            * * * * * * *   C O D E   M E M O R Y   * * * * * * *
            CODE    0000H     0003H     ABSOLUTE     
            CODE    0003H     0018H     UNIT         ?PR?_TIMER_DEINIT?HAL_TIMER
            CODE    001BH     0007H     UNIT         ?PR?MAIN
                    0022H     0001H                  *** GAP ***
            CODE    0023H     0003H     ABSOLUTE     
            CODE    0026H     0480H     UNIT         ?C?LIB_CODE
            CODE    04A6H     019AH     UNIT         ?PR?_UART_CONFIG?HAL_UART
            CODE    0640H     00F1H     UNIT         ?PR?_EEPROM_WRITE_EX?HAL_EEPROM
            CODE    0731H     00B9H     UNIT         ?PR?_UART_INIT?HAL_UART
            CODE    07EAH     00B0H     UNIT         ?PR?HAL_UART
            CODE    089AH     00A7H     UNIT         ?PR?_TIMER_INIT?HAL_TIMER
            CODE    0941H     008CH     UNIT         ?C_C51STARTUP
            CODE    09CDH     0080H     UNIT         ?PR?HAL_EEPROM
            CODE    0A4DH     007CH     UNIT         ?PR?_EXTI_INIT?HAL_EXTI
            CODE    0AC9H     007CH     UNIT         ?PR?_TIMER_SET_TIME?HAL_TIMER
            CODE    0B45H     0063H     UNIT         ?PR?_UART_GET_CONFIGURATION_WIZARD?HAL_UART
            CODE    0BA8H     005FH     UNIT         ?PR?_UART_CHAR?HAL_UART
            CODE    0C07H     005CH     UNIT         ?PR?HAL_TIMER
            CODE    0C63H     0059H     UNIT         ?PR?_TIMER_GET_CONFIGURATION_WIZARD?HAL_TIMER
            CODE    0CBCH     004AH     UNIT         ?PR?MAIN?MAIN
            CODE    0D06H     004AH     UNIT         ?PR?_TIMER_SET_COUNT?HAL_TIMER
            CODE    0D50H     0048H     UNIT         ?PR?_UART_STRING?HAL_UART
            CODE    0D98H     0044H     UNIT         ?C?LDIV
            CODE    0DDCH     003FH     UNIT         ?PR?_EXTI_GET_CONFIGURATION_WIZARD?HAL_EXTI
            CODE    0E1BH     0037H     UNIT         ?PR?_EEPROM_READ_EX?HAL_EEPROM
            CODE    0E52H     0033H     UNIT         ?PR?UART1_IT_FUN?HAL_UART
            CODE    0E85H     002DH     UNIT         ?PR?_EXTI_START?HAL_EXTI
            CODE    0EB2H     002DH     UNIT         ?PR?_EXTI_STOP?HAL_EXTI
            CODE    0EDFH     002BH     UNIT         ?PR?_UART_CHAR_9?HAL_UART
            CODE    0F0AH     0027H     UNIT         ?PR?_EXTI_DEINIT?HAL_EXTI
            CODE    0F31H     0027H     UNIT         ?PR?_TIMER_START?HAL_TIMER
            CODE    0F58H     0025H     UNIT         ?PR?_TIMER_STOP?HAL_TIMER
            CODE    0F7DH     0022H     UNIT         ?PR?_UART_DEINIT?HAL_UART
            CODE    0F9FH     0021H     UNIT         ?PR?_UART_CHAR_8?HAL_UART
            CODE    0FC0H     0013H     UNIT         ?PR?_EEPROM_WRITE?HAL_EEPROM
            CODE    0FD3H     000FH     UNIT         ?PR?_EEPROM_READ?HAL_EEPROM
            CODE    0FE2H     000EH     UNIT         ?PR?EEPROM_OFF?HAL_EEPROM
            CODE    0FF0H     000DH     UNIT         ?PR?_EEPROM_ERASE?HAL_EEPROM
            CODE    0FFDH     000CH     UNIT         ?PR?HAL_EXTI
            CODE    1009H     000BH     UNIT         ?PR?_TIMER_RELOAD?HAL_TIMER
            CODE    1014H     0007H     UNIT         ?C_INITSEG
            CODE    101BH     0003H     UNIT         ?PR?SYSTEM_INIT?HAL_CONFIG



OVERLAY MAP OF MODULE:   .\Objects\ecbm_hal (MAIN)


SEGMENT                                            DATA_GROUP 
  +--> CALLED SEGMENT                            START    LENGTH
BL51 BANKED LINKER/LOCATER V6.22.2.0                                                  05/28/2021  22:01:34  PAGE 3


----------------------------------------------------------------
?C_C51STARTUP                                    -----    -----
  +--> ?PR?MAIN?MAIN
  +--> ?C_INITSEG

?PR?MAIN?MAIN                                    0008H    0002H
  +--> ?PR?SYSTEM_INIT?HAL_CONFIG
  +--> ?PR?_TIMER_GET_CONFIGURATION_WIZARD?H...
  +--> ?PR?_TIMER_INIT?HAL_TIMER
  +--> ?PR?MAIN
  +--> ?PR?_UART_GET_CONFIGURATION_WIZARD?HA...
  +--> ?PR?_UART_INIT?HAL_UART
  +--> ?PR?_EEPROM_READ?HAL_EEPROM
  +--> ?PR?_UART_CHAR?HAL_UART

?PR?_TIMER_GET_CONFIGURATION_WIZARD?H...         000AH    0003H
  +--> ?PR?HAL_TIMER

?PR?_TIMER_INIT?HAL_TIMER                        -----    -----
  +--> ?PR?HAL_TIMER

?PR?_UART_GET_CONFIGURATION_WIZARD?HA...         000AH    0003H
  +--> ?PR?HAL_UART
  +--> ?PR?_UART_CONFIG?HAL_UART

?PR?_UART_CONFIG?HAL_UART                        000DH    001AH
  +--> ?PR?HAL_UART

?PR?_UART_INIT?HAL_UART                          -----    -----
  +--> ?PR?HAL_UART

?PR?_EEPROM_READ?HAL_EEPROM                      -----    -----
  +--> ?PR?HAL_EEPROM
  +--> ?PR?EEPROM_OFF?HAL_EEPROM

?PR?HAL_EEPROM                                   -----    -----
  +--> ?PR?_EEPROM_ERASE?HAL_EEPROM
  +--> ?PR?_EEPROM_WRITE?HAL_EEPROM

?PR?_EEPROM_ERASE?HAL_EEPROM                     -----    -----
  +--> ?PR?EEPROM_OFF?HAL_EEPROM

?PR?_EEPROM_WRITE?HAL_EEPROM                     -----    -----
  +--> ?PR?EEPROM_OFF?HAL_EEPROM

?PR?_UART_CHAR?HAL_UART                          -----    -----
  +--> ?PR?HAL_UART



SYMBOL TABLE OF MODULE:  .\Objects\ecbm_hal (MAIN)

  VALUE           TYPE          NAME
  ----------------------------------

  -------         MODULE        MAIN
  C:0000H         SYMBOL        _ICE_DUMMY_
BL51 BANKED LINKER/LOCATER V6.22.2.0                                                  05/28/2021  22:01:34  PAGE 4


  D:0080H         PUBLIC        P0
  D:0090H         PUBLIC        P1
  D:00A0H         PUBLIC        P2
  D:00B0H         PUBLIC        P3
  D:00C0H         PUBLIC        P4
  D:00A8H         PUBLIC        IE
  D:00B8H         PUBLIC        IP
  C:0CBCH         PUBLIC        main
  D:0098H         PUBLIC        SCON
  D:0088H         PUBLIC        TCON
  D:0045H         PUBLIC        uart1
  D:00D0H         PUBLIC        PSW
  D:0049H         PUBLIC        tim0
  C:001BH         SYMBOL        Com0007
  C:001BH         SYMBOL        L?0008
  C:001BH         SYMBOL        L?0009
  -------         PROC          COM0007
  -------         ENDPROC       COM0007
  -------         PROC          MAIN
  -------         DO            
  D:0008H         SYMBOL        i
  D:0009H         SYMBOL        dat
  -------         ENDDO         
  C:0CBCH         LINE#         4
  C:0CBCH         LINE#         6
  C:0CBFH         LINE#         7
  C:0CCAH         LINE#         8
  C:0CD3H         LINE#         9
  C:0CDBH         LINE#         10
  C:0CE1H         LINE#         11
  C:0CEFH         LINE#         12
  C:0CF8H         LINE#         13
  C:0D00H         LINE#         14
  C:0D04H         LINE#         15
  C:0D04H         LINE#         17
  -------         ENDPROC       MAIN
  -------         ENDMOD        MAIN

  -------         MODULE        HAL_CONFIG
  C:0000H         SYMBOL        _ICE_DUMMY_
  D:0080H         PUBLIC        P0
  D:0090H         PUBLIC        P1
  D:00A0H         PUBLIC        P2
  D:00B0H         PUBLIC        P3
  D:00C0H         PUBLIC        P4
  B:00A8H.7       PUBLIC        EA
  D:00A8H         PUBLIC        IE
  D:00B8H         PUBLIC        IP
  D:005FH         PUBLIC        peripheral
  D:0098H         PUBLIC        SCON
  D:0088H         PUBLIC        TCON
  C:101BH         PUBLIC        system_init
  D:00D0H         PUBLIC        PSW
  -------         PROC          SYSTEM_INIT
  C:101BH         LINE#         10
  C:101BH         LINE#         11
  C:101DH         LINE#         12
BL51 BANKED LINKER/LOCATER V6.22.2.0                                                  05/28/2021  22:01:34  PAGE 5


  -------         ENDPROC       SYSTEM_INIT
  -------         ENDMOD        HAL_CONFIG

  -------         MODULE        HAL_EXTI
  C:0000H         SYMBOL        _ICE_DUMMY_
  D:0080H         PUBLIC        P0
  D:0090H         PUBLIC        P1
  D:00A0H         PUBLIC        P2
  D:00B0H         PUBLIC        P3
  D:00C0H         PUBLIC        P4
  D:00A8H         PUBLIC        IE
  D:00B8H         PUBLIC        IP
  C:0F0AH         PUBLIC        _exti_deinit
  D:0098H         PUBLIC        SCON
  D:0088H         PUBLIC        TCON
  B:00B0H.2       PUBLIC        P32
  B:00B0H.3       PUBLIC        P33
  C:0DDCH         PUBLIC        _exti_get_configuration_wizard
  B:0088H.0       PUBLIC        IT0
  B:00A8H.0       PUBLIC        EX0
  C:0E85H         PUBLIC        _exti_start
  B:0088H.2       PUBLIC        IT1
  B:00A8H.2       PUBLIC        EX1
  C:0A4DH         PUBLIC        _exti_init
  B:00B8H.0       PUBLIC        PX0
  B:00B8H.2       PUBLIC        PX1
  C:0EB2H         PUBLIC        _exti_stop
  D:00D0H         PUBLIC        PSW
  C:0FFDH         SYMBOL        Com0075
  C:0FFDH         SYMBOL        L?0118
  C:0FFDH         SYMBOL        L?0119
  C:1000H         SYMBOL        L?0120
  -------         PROC          COM0075
  -------         ENDPROC       COM0075
  -------         PROC          _EXTI_INIT
  D:0001H         SYMBOL        dev
  C:0A4DH         LINE#         7
  C:0A4DH         LINE#         8
  C:0A59H         LINE#         10
  C:0A59H         LINE#         11
  C:0A60H         LINE#         12
  C:0A62H         LINE#         13
  C:0A64H         LINE#         14
  C:0A66H         LINE#         15
  C:0A66H         LINE#         16
  C:0A71H         LINE#         17
  C:0A73H         LINE#         18
  C:0A75H         LINE#         19
  C:0A77H         LINE#         20
  C:0A77H         LINE#         21
  C:0A79H         LINE#         22
  C:0A82H         LINE#         23
  C:0A84H         LINE#         24
  C:0A86H         LINE#         25
  C:0A88H         LINE#         26
  C:0A88H         LINE#         27
  C:0A8BH         LINE#         28
BL51 BANKED LINKER/LOCATER V6.22.2.0                                                  05/28/2021  22:01:34  PAGE 6


  C:0A8DH         LINE#         31
  C:0A8DH         LINE#         32
  C:0A97H         LINE#         33
  C:0A99H         LINE#         34
  C:0A9BH         LINE#         35
  C:0A9DH         LINE#         36
  C:0A9DH         LINE#         37
  C:0AA5H         LINE#         38
  C:0AA7H         LINE#         39
  C:0AA9H         LINE#         40
  C:0AABH         LINE#         41
  C:0AABH         LINE#         42
  C:0AADH         LINE#         43
  C:0AB8H         LINE#         44
  C:0ABAH         LINE#         45
  C:0ABCH         LINE#         46
  C:0ABEH         LINE#         47
  C:0ABEH         LINE#         48
  C:0AC1H         LINE#         49
  C:0AC3H         LINE#         51
  C:0AC6H         LINE#         52
  C:0AC6H         LINE#         54
  C:0AC8H         LINE#         56
  -------         ENDPROC       _EXTI_INIT
  -------         PROC          _EXTI_DEINIT
  D:0007H         SYMBOL        id
  C:0F0AH         LINE#         60
  C:0F0AH         LINE#         61
  C:0F11H         LINE#         63
  C:0F11H         LINE#         64
  C:0F13H         LINE#         65
  C:0F15H         LINE#         66
  C:0F17H         LINE#         67
  C:0F19H         LINE#         68
  C:0F1CH         LINE#         69
  C:0F1EH         LINE#         72
  C:0F1EH         LINE#         73
  C:0F20H         LINE#         74
  C:0F22H         LINE#         75
  C:0F24H         LINE#         76
  C:0F26H         LINE#         77
  C:0F29H         LINE#         78
  C:0F2BH         LINE#         80
  C:0F2EH         LINE#         81
  C:0F2EH         LINE#         83
  C:0F30H         LINE#         85
  -------         ENDPROC       _EXTI_DEINIT
  -------         PROC          _EXTI_START
  D:0062H         SYMBOL        dev
  C:0E85H         LINE#         89
  C:0E8BH         LINE#         91
  C:0E93H         LINE#         93
  C:0EA4H         LINE#         95
  C:0EA4H         LINE#         96
  C:0EA6H         LINE#         97
  C:0EA8H         LINE#         100
  C:0EA8H         LINE#         101
BL51 BANKED LINKER/LOCATER V6.22.2.0                                                  05/28/2021  22:01:34  PAGE 7


  C:0EAAH         LINE#         102
  C:0EACH         LINE#         104
  C:0EAFH         LINE#         105
  C:0EAFH         LINE#         107
  C:0EB1H         LINE#         109
  -------         ENDPROC       _EXTI_START
  -------         PROC          _EXTI_STOP
  D:0065H         SYMBOL        dev
  C:0EB2H         LINE#         113
  C:0EB8H         LINE#         115
  C:0EC0H         LINE#         117
  C:0ED1H         LINE#         119
  C:0ED1H         LINE#         120
  C:0ED3H         LINE#         121
  C:0ED5H         LINE#         124
  C:0ED5H         LINE#         125
  C:0ED7H         LINE#         126
  C:0ED9H         LINE#         128
  C:0EDCH         LINE#         129
  C:0EDCH         LINE#         131
  C:0EDEH         LINE#         133
  -------         ENDPROC       _EXTI_STOP
  -------         PROC          _EXTI_GET_CONFIGURATION_WIZARD
  D:0068H         SYMBOL        dev
  D:0005H         SYMBOL        id
  C:0DDCH         LINE#         137
  C:0DE2H         LINE#         138
  C:0DE2H         LINE#         139
  C:0DE9H         LINE#         141
  C:0DE9H         LINE#         142
  C:0DEEH         LINE#         143
  C:0DF3H         LINE#         144
  C:0DF8H         LINE#         145
  C:0DF8H         LINE#         146
  C:0DFAH         LINE#         149
  C:0DFAH         LINE#         150
  C:0E01H         LINE#         151
  C:0E06H         LINE#         152
  C:0E0BH         LINE#         153
  C:0E13H         LINE#         154
  C:0E15H         LINE#         156
  C:0E18H         LINE#         157
  C:0E18H         LINE#         159
  C:0E1AH         LINE#         161
  -------         ENDPROC       _EXTI_GET_CONFIGURATION_WIZARD
  -------         ENDMOD        HAL_EXTI

  -------         MODULE        HAL_TIMER
  C:0000H         SYMBOL        _ICE_DUMMY_
  C:1009H         PUBLIC        _timer_reload
  D:0080H         PUBLIC        P0
  D:0090H         PUBLIC        P1
  D:00A0H         PUBLIC        P2
  D:00B0H         PUBLIC        P3
  D:00C0H         PUBLIC        P4
  C:0003H         PUBLIC        _timer_deinit
  D:00A8H         PUBLIC        IE
BL51 BANKED LINKER/LOCATER V6.22.2.0                                                  05/28/2021  22:01:34  PAGE 8


  D:00B8H         PUBLIC        IP
  C:0C63H         PUBLIC        _timer_get_configuration_wizard
  D:0098H         PUBLIC        SCON
  D:008FH         PUBLIC        WAKE_CLKO
  D:0089H         PUBLIC        TMOD
  D:0088H         PUBLIC        TCON
  C:0F31H         PUBLIC        _timer_start
  C:089AH         PUBLIC        _timer_init
  D:008EH         PUBLIC        AUXR
  B:00A8H.1       PUBLIC        ET0
  B:0088H.5       PUBLIC        TF0
  D:008CH         PUBLIC        TH0
  C:0F58H         PUBLIC        _timer_stop
  D:008AH         PUBLIC        TL0
  B:00B8H.1       PUBLIC        PT0
  B:0088H.4       PUBLIC        TR0
  C:0D06H         PUBLIC        _timer_set_count
  C:0AC9H         PUBLIC        _timer_set_time
  D:00D0H         PUBLIC        PSW
  C:0C07H         SYMBOL        Com007F
  C:0C07H         SYMBOL        L?0128
  C:0C07H         SYMBOL        L?0129
  C:0C0AH         SYMBOL        L?0130
  C:0C13H         SYMBOL        L?0131
  C:0C33H         SYMBOL        L?0132
  C:0C33H         SYMBOL        L?0133
  C:0C39H         SYMBOL        L?0134
  C:0C47H         SYMBOL        L?0135
  C:0C55H         SYMBOL        L?0136
  -------         PROC          COM007F
  -------         ENDPROC       COM007F
  -------         PROC          _TIMER_INIT
  D:0001H         SYMBOL        dev
  C:089AH         LINE#         8
  C:089AH         LINE#         9
  C:08A5H         LINE#         11
  C:08A5H         LINE#         12
  C:08ACH         LINE#         13
  C:08B4H         LINE#         14
  C:08B6H         LINE#         15
  C:08BEH         LINE#         16
  C:08BEH         LINE#         17
  C:08C8H         LINE#         18
  C:08CBH         LINE#         19
  C:08CDH         LINE#         20
  C:08D0H         LINE#         21
  C:08D0H         LINE#         22
  C:08DAH         LINE#         23
  C:08DDH         LINE#         24
  C:08DFH         LINE#         25
  C:08E2H         LINE#         26
  C:08E2H         LINE#         27
  C:08EAH         LINE#         28
  C:08EDH         LINE#         29
  C:08EFH         LINE#         30
  C:08F2H         LINE#         31
  C:08F2H         LINE#         32
BL51 BANKED LINKER/LOCATER V6.22.2.0                                                  05/28/2021  22:01:34  PAGE 9


  C:08FEH         LINE#         33
  C:0901H         LINE#         34
  C:0903H         LINE#         35
  C:0906H         LINE#         36
  C:0906H         LINE#         37
  C:090CH         LINE#         38
  C:090EH         LINE#         39
  C:0910H         LINE#         40
  C:0912H         LINE#         41
  C:0912H         LINE#         42
  C:091CH         LINE#         43
  C:091EH         LINE#         44
  C:0920H         LINE#         45
  C:0922H         LINE#         46
  C:0922H         LINE#         47
  C:0925H         LINE#         48
  C:092EH         LINE#         49
  C:0932H         LINE#         50
  C:0934H         LINE#         51
  C:0936H         LINE#         52
  C:0936H         LINE#         53
  C:0939H         LINE#         54
  C:093BH         LINE#         105
  C:093EH         LINE#         106
  C:093EH         LINE#         108
  C:0940H         LINE#         110
  -------         ENDPROC       _TIMER_INIT
  -------         PROC          _TIMER_DEINIT
  D:0007H         SYMBOL        id
  C:0003H         LINE#         114
  C:0003H         LINE#         115
  C:0006H         LINE#         117
  C:0006H         LINE#         118
  C:0008H         LINE#         119
  C:000BH         LINE#         120
  C:000DH         LINE#         121
  C:0010H         LINE#         122
  C:0013H         LINE#         123
  C:0015H         LINE#         134
  C:0018H         LINE#         135
  C:0018H         LINE#         137
  C:001AH         LINE#         139
  -------         ENDPROC       _TIMER_DEINIT
  -------         PROC          _TIMER_START
  D:006BH         SYMBOL        dev
  C:0F31H         LINE#         143
  C:0F37H         LINE#         145
  C:0F3FH         LINE#         147
  C:0F4CH         LINE#         149
  C:0F4CH         LINE#         150
  C:0F50H         LINE#         151
  C:0F52H         LINE#         158
  C:0F55H         LINE#         159
  C:0F55H         LINE#         161
  C:0F57H         LINE#         163
  -------         ENDPROC       _TIMER_START
  -------         PROC          _TIMER_STOP
BL51 BANKED LINKER/LOCATER V6.22.2.0                                                  05/28/2021  22:01:34  PAGE 10


  D:006EH         SYMBOL        dev
  C:0F58H         LINE#         167
  C:0F5EH         LINE#         169
  C:0F66H         LINE#         171
  C:0F73H         LINE#         173
  C:0F73H         LINE#         174
  C:0F75H         LINE#         175
  C:0F77H         LINE#         182
  C:0F7AH         LINE#         183
  C:0F7AH         LINE#         185
  C:0F7CH         LINE#         187
  -------         ENDPROC       _TIMER_STOP
  -------         PROC          _TIMER_RELOAD
  D:0001H         SYMBOL        dev
  C:1009H         LINE#         192
  C:1009H         LINE#         193
  C:1010H         LINE#         195
  C:1010H         LINE#         196
  C:1013H         LINE#         197
  C:1013H         LINE#         204
  C:1013H         LINE#         205
  -------         ENDPROC       _TIMER_RELOAD
  -------         PROC          _TIMER_SET_TIME
  D:003CH         SYMBOL        dev
  D:003FH         SYMBOL        time
  -------         DO            
  D:0005H         SYMBOL        temp8
  D:0041H         SYMBOL        temp32
  -------         ENDDO         
  C:0AC9H         LINE#         211
  C:0AD3H         LINE#         214
  C:0ADEH         LINE#         215
  C:0ADEH         LINE#         216
  C:0AE9H         LINE#         217
  C:0AF2H         LINE#         218
  C:0AF5H         LINE#         219
  C:0AF5H         LINE#         220
  C:0AF8H         LINE#         221
  C:0B08H         LINE#         222
  C:0B0AH         LINE#         223
  C:0B0AH         LINE#         224
  C:0B16H         LINE#         225
  C:0B20H         LINE#         226
  C:0B23H         LINE#         227
  C:0B23H         LINE#         228
  C:0B2EH         LINE#         229
  C:0B42H         LINE#         230
  C:0B42H         LINE#         231
  C:0B42H         LINE#         232
  C:0B44H         LINE#         233
  -------         ENDPROC       _TIMER_SET_TIME
  -------         PROC          _TIMER_SET_COUNT
  D:0001H         SYMBOL        dev
  D:0074H         SYMBOL        count
  -------         DO            
  D:0005H         SYMBOL        temp8
  -------         ENDDO         
BL51 BANKED LINKER/LOCATER V6.22.2.0                                                  05/28/2021  22:01:34  PAGE 11


  C:0D06H         LINE#         239
  C:0D0AH         LINE#         241
  C:0D15H         LINE#         242
  C:0D15H         LINE#         243
  C:0D20H         LINE#         244
  C:0D23H         LINE#         245
  C:0D23H         LINE#         246
  C:0D25H         LINE#         247
  C:0D3BH         LINE#         248
  C:0D3DH         LINE#         249
  C:0D3DH         LINE#         250
  C:0D4DH         LINE#         251
  C:0D4DH         LINE#         252
  C:0D4DH         LINE#         253
  C:0D4FH         LINE#         254
  -------         ENDPROC       _TIMER_SET_COUNT
  -------         PROC          _TIMER_GET_CONFIGURATION_WIZARD
  D:000AH         SYMBOL        dev
  D:0005H         SYMBOL        id
  C:0C63H         LINE#         259
  C:0C69H         LINE#         260
  C:0C69H         LINE#         261
  C:0C6CH         LINE#         263
  C:0C6CH         LINE#         264
  C:0C71H         LINE#         265
  C:0C76H         LINE#         266
  C:0C7BH         LINE#         267
  C:0C80H         LINE#         268
  C:0C88H         LINE#         269
  C:0C8DH         LINE#         270
  C:0C95H         LINE#         271
  C:0C9EH         LINE#         272
  C:0C9EH         LINE#         273
  C:0C9EH         LINE#         274
  C:0CA7H         LINE#         275
  C:0CA7H         LINE#         276
  C:0CAFH         LINE#         277
  C:0CB4H         LINE#         280
  C:0CB6H         LINE#         301
  C:0CB9H         LINE#         302
  C:0CB9H         LINE#         304
  C:0CBBH         LINE#         306
  -------         ENDPROC       _TIMER_GET_CONFIGURATION_WIZARD
  -------         ENDMOD        HAL_TIMER

  -------         MODULE        HAL_UART
  C:0000H         SYMBOL        _ICE_DUMMY_
  D:0080H         PUBLIC        P0
  D:0090H         PUBLIC        P1
  D:00A0H         PUBLIC        P2
  D:00B0H         PUBLIC        P3
  D:00C0H         PUBLIC        P4
  D:00A8H         PUBLIC        IE
  D:0071H         PUBLIC        uart1_busy
  B:00A8H.4       PUBLIC        ES
  C:04A6H         PUBLIC        _uart_config
  D:00B8H         PUBLIC        IP
BL51 BANKED LINKER/LOCATER V6.22.2.0                                                  05/28/2021  22:01:34  PAGE 12


  B:0098H.0       PUBLIC        RI
  B:0098H.1       PUBLIC        TI
  C:0F7DH         PUBLIC        _uart_deinit
  B:00B8H.4       PUBLIC        PS
  D:0072H         PUBLIC        char_count
  D:0099H         PUBLIC        SBUF
  D:0087H         PUBLIC        PCON
  D:0098H         PUBLIC        SCON
  D:0089H         PUBLIC        TMOD
  D:0088H         PUBLIC        TCON
  C:0B45H         PUBLIC        _uart_get_configuration_wizard
  C:0D50H         PUBLIC        _uart_string
  C:0BA8H         PUBLIC        _uart_char
  D:0073H         PUBLIC        old_char
  D:00C7H         PUBLIC        IAP_CONTR
  D:00E0H         PUBLIC        ACC
  B:0088H.7       PUBLIC        TF1
  D:008DH         PUBLIC        TH1
  B:0098H.3       PUBLIC        TB8
  B:00D0H.0       PUBLIC        P
  D:008BH         PUBLIC        TL1
  B:0098H.5       PUBLIC        SM2
  C:0731H         PUBLIC        _uart_init
  C:0F9FH         PUBLIC        _uart_char_8
  B:0088H.6       PUBLIC        TR1
  C:0EDFH         PUBLIC        _uart_char_9
  C:0E52H         PUBLIC        uart1_it_fun
  B:0098H.4       PUBLIC        REN
  D:00D0H         PUBLIC        PSW
  C:07EAH         SYMBOL        Com00E4
  C:07EAH         SYMBOL        L?0229
  C:07EAH         SYMBOL        L?0230
  C:07EDH         SYMBOL        L?0231
  C:07F6H         SYMBOL        L?0232
  C:07F6H         SYMBOL        L?0233
  C:07F9H         SYMBOL        L?0234
  C:0802H         SYMBOL        L?0235
  C:080CH         SYMBOL        L?0236
  C:0815H         SYMBOL        L?0237
  C:0825H         SYMBOL        L?0238
  C:0840H         SYMBOL        L?0239
  C:0840H         SYMBOL        L?0240
  C:084CH         SYMBOL        L?0241
  C:0852H         SYMBOL        L?0242
  C:085BH         SYMBOL        L?0243
  C:0867H         SYMBOL        L?0244
  C:0867H         SYMBOL        L?0245
  C:086FH         SYMBOL        L?0246
  C:0871H         SYMBOL        L?0247
  C:0878H         SYMBOL        L?0248
  C:0884H         SYMBOL        L?0249
  C:088FH         SYMBOL        L?0250
  -------         PROC          COM00E4
  -------         ENDPROC       COM00E4
  -------         PROC          _UART_INIT
  D:0001H         SYMBOL        dev
  C:0731H         LINE#         17
BL51 BANKED LINKER/LOCATER V6.22.2.0                                                  05/28/2021  22:01:34  PAGE 13


  C:0731H         LINE#         18
  C:0739H         LINE#         20
  C:0739H         LINE#         21
  C:073FH         LINE#         22
  C:0741H         LINE#         23
  C:0743H         LINE#         24
  C:0745H         LINE#         25
  C:0745H         LINE#         26
  C:074FH         LINE#         27
  C:0751H         LINE#         28
  C:0753H         LINE#         29
  C:0755H         LINE#         30
  C:0755H         LINE#         31
  C:075DH         LINE#         32
  C:075FH         LINE#         33
  C:0761H         LINE#         34
  C:0763H         LINE#         35
  C:0763H         LINE#         36
  C:076FH         LINE#         37
  C:0772H         LINE#         38
  C:0774H         LINE#         39
  C:0777H         LINE#         40
  C:0777H         LINE#         41
  C:0781H         LINE#         42
  C:0783H         LINE#         43
  C:0785H         LINE#         44
  C:0787H         LINE#         45
  C:0787H         LINE#         46
  C:079CH         LINE#         47
  C:079CH         LINE#         48
  C:079FH         LINE#         49
  C:07A1H         LINE#         50
  C:07A1H         LINE#         51
  C:07A9H         LINE#         52
  C:07ABH         LINE#         53
  C:07ABH         LINE#         54
  C:07B3H         LINE#         55
  C:07B5H         LINE#         56
  C:07B5H         LINE#         57
  C:07BDH         LINE#         58
  C:07BDH         LINE#         59
  C:07BDH         LINE#         60
  C:07C0H         LINE#         61
  C:07C3H         LINE#         62
  C:07CBH         LINE#         63
  C:07D8H         LINE#         64
  C:07DCH         LINE#         65
  C:07DFH         LINE#         66
  C:07E2H         LINE#         67
  C:07E4H         LINE#         69
  C:07E7H         LINE#         70
  C:07E7H         LINE#         71
  C:07E9H         LINE#         72
  -------         ENDPROC       _UART_INIT
  -------         PROC          _UART_DEINIT
  D:0007H         SYMBOL        id
  C:0F7DH         LINE#         76
BL51 BANKED LINKER/LOCATER V6.22.2.0                                                  05/28/2021  22:01:34  PAGE 14


  C:0F7DH         LINE#         77
  C:0F81H         LINE#         79
  C:0F81H         LINE#         80
  C:0F83H         LINE#         81
  C:0F85H         LINE#         82
  C:0F87H         LINE#         83
  C:0F8AH         LINE#         84
  C:0F8CH         LINE#         85
  C:0F8FH         LINE#         86
  C:0F91H         LINE#         87
  C:0F94H         LINE#         88
  C:0F97H         LINE#         89
  C:0F99H         LINE#         91
  C:0F9CH         LINE#         92
  C:0F9CH         LINE#         93
  C:0F9EH         LINE#         94
  -------         ENDPROC       _UART_DEINIT
  -------         PROC          _UART_CONFIG
  D:000DH         SYMBOL        dev
  D:0010H         SYMBOL        baud
  D:0014H         SYMBOL        check
  -------         DO            
  D:0015H         SYMBOL        temp1
  D:0016H         SYMBOL        temp2
  D:0017H         SYMBOL        res1
  D:001BH         SYMBOL        res2
  D:001FH         SYMBOL        der1
  D:0023H         SYMBOL        der2
  -------         ENDDO         
  C:04A6H         LINE#         99
  C:04B4H         LINE#         102
  C:04C2H         LINE#         103
  C:04C5H         LINE#         104
  C:04C5H         LINE#         105
  C:04D9H         LINE#         106
  C:04DFH         LINE#         107
  C:04E6H         LINE#         108
  C:04E8H         LINE#         109
  C:04F0H         LINE#         110
  C:04F0H         LINE#         111
  C:04F0H         LINE#         112
  C:04F5H         LINE#         113
  C:04FAH         LINE#         114
  C:04FFH         LINE#         115
  C:0507H         LINE#         116
  C:0516H         LINE#         117
  C:0524H         LINE#         118
  C:053DH         LINE#         119
  C:0555H         LINE#         120
  C:0595H         LINE#         121
  C:05D5H         LINE#         122
  C:05EBH         LINE#         123
  C:05FCH         LINE#         124
  C:060CH         LINE#         125
  C:060FH         LINE#         126
  C:060FH         LINE#         127
  C:0616H         LINE#         128
BL51 BANKED LINKER/LOCATER V6.22.2.0                                                  05/28/2021  22:01:34  PAGE 15


  C:061EH         LINE#         129
  C:0625H         LINE#         130
  C:0625H         LINE#         131
  C:062EH         LINE#         132
  C:0636H         LINE#         133
  C:063DH         LINE#         134
  C:063DH         LINE#         135
  C:063DH         LINE#         136
  C:063FH         LINE#         137
  -------         ENDPROC       _UART_CONFIG
  -------         PROC          _UART_CHAR
  D:0001H         SYMBOL        dev
  D:0005H         SYMBOL        dat
  C:0BA8H         LINE#         143
  C:0BA8H         LINE#         144
  C:0BB0H         LINE#         146
  C:0BB0H         LINE#         147
  C:0BC1H         LINE#         148
  C:0BC1H         LINE#         149
  C:0BC5H         LINE#         150
  C:0BC7H         LINE#         151
  C:0BC9H         LINE#         152
  C:0BCBH         LINE#         153
  C:0BCBH         LINE#         154
  C:0BCDH         LINE#         155
  C:0BCDH         LINE#         156
  C:0BD1H         LINE#         157
  C:0BD3H         LINE#         158
  C:0BD5H         LINE#         159
  C:0BD7H         LINE#         160
  C:0BD7H         LINE#         161
  C:0BD9H         LINE#         162
  C:0BD9H         LINE#         163
  C:0BDBH         LINE#         164
  C:0BDDH         LINE#         165
  C:0BDDH         LINE#         166
  C:0BDFH         LINE#         167
  C:0BE1H         LINE#         168
  C:0BE4H         LINE#         169
  C:0BE4H         LINE#         170
  C:0BE6H         LINE#         171
  C:0BF1H         LINE#         172
  C:0BF4H         LINE#         173
  C:0BFAH         LINE#         174
  C:0BFAH         LINE#         175
  C:0BFDH         LINE#         176
  C:0BFFH         LINE#         177
  C:0BFFH         LINE#         178
  C:0C01H         LINE#         180
  C:0C04H         LINE#         181
  C:0C04H         LINE#         182
  C:0C06H         LINE#         183
  -------         ENDPROC       _UART_CHAR
  -------         PROC          _UART_CHAR_8
  D:0001H         SYMBOL        dev
  D:0005H         SYMBOL        dat
  C:0F9FH         LINE#         188
BL51 BANKED LINKER/LOCATER V6.22.2.0                                                  05/28/2021  22:01:34  PAGE 16


  C:0F9FH         LINE#         189
  C:0F9FH         LINE#         190
  C:0FA4H         LINE#         192
  C:0FA4H         LINE#         193
  C:0FA4H         LINE#         194
  C:0FAAH         LINE#         195
  C:0FADH         LINE#         196
  C:0FB3H         LINE#         197
  C:0FB3H         LINE#         198
  C:0FB6H         LINE#         199
  C:0FB8H         LINE#         200
  C:0FB8H         LINE#         201
  C:0FBAH         LINE#         203
  C:0FBDH         LINE#         204
  C:0FBDH         LINE#         205
  C:0FBFH         LINE#         206
  -------         ENDPROC       _UART_CHAR_8
  -------         PROC          _UART_CHAR_9
  D:0001H         SYMBOL        dev
  D:0005H         SYMBOL        dat
  D:005EH         SYMBOL        bit9
  C:0EDFH         LINE#         211
  C:0EDFH         LINE#         212
  C:0EE4H         LINE#         214
  C:0EE4H         LINE#         215
  C:0EE8H         LINE#         216
  C:0EEAH         LINE#         217
  C:0EECH         LINE#         218
  C:0EEEH         LINE#         219
  C:0EEEH         LINE#         220
  C:0EEEH         LINE#         221
  C:0EF4H         LINE#         222
  C:0EF7H         LINE#         223
  C:0EFDH         LINE#         224
  C:0EFDH         LINE#         225
  C:0F00H         LINE#         226
  C:0F02H         LINE#         227
  C:0F02H         LINE#         228
  C:0F04H         LINE#         230
  C:0F07H         LINE#         231
  C:0F07H         LINE#         232
  C:0F09H         LINE#         233
  -------         ENDPROC       _UART_CHAR_9
  -------         PROC          _UART_STRING
  D:0054H         SYMBOL        dev
  D:0057H         SYMBOL        str
  C:0D50H         LINE#         238
  C:0D56H         LINE#         240
  C:0D6FH         LINE#         241
  C:0D74H         LINE#         242
  C:0D7DH         LINE#         243
  C:0D80H         LINE#         244
  C:0D82H         LINE#         245
  C:0D82H         LINE#         247
  C:0D87H         LINE#         248
  C:0D90H         LINE#         249
  C:0D93H         LINE#         250
BL51 BANKED LINKER/LOCATER V6.22.2.0                                                  05/28/2021  22:01:34  PAGE 17


  C:0D95H         LINE#         252
  C:0D95H         LINE#         254
  C:0D97H         LINE#         255
  -------         ENDPROC       _UART_STRING
  -------         PROC          _UART_GET_CONFIGURATION_WIZARD
  D:000AH         SYMBOL        dev
  D:0005H         SYMBOL        id
  -------         DO            
  D:0007H         SYMBOL        res
  -------         ENDDO         
  C:0B45H         LINE#         259
  C:0B4BH         LINE#         263
  C:0B4BH         LINE#         264
  C:0B4FH         LINE#         266
  C:0B4FH         LINE#         267
  C:0B59H         LINE#         269
  C:0B6BH         LINE#         270
  C:0B6FH         LINE#         272
  C:0B74H         LINE#         273
  C:0B79H         LINE#         274
  C:0B7EH         LINE#         275
  C:0B86H         LINE#         276
  C:0B9BH         LINE#         277
  C:0BA0H         LINE#         278
  C:0BA2H         LINE#         280
  C:0BA5H         LINE#         281
  C:0BA5H         LINE#         282
  C:0BA7H         LINE#         283
  -------         ENDPROC       _UART_GET_CONFIGURATION_WIZARD
  -------         PROC          UART1_IT_FUN
  C:0E52H         LINE#         288
  C:0E56H         LINE#         289
  C:0E59H         LINE#         290
  C:0E5BH         LINE#         291
  C:0E5EH         LINE#         295
  C:0E5EH         LINE#         296
  C:0E61H         LINE#         297
  C:0E63H         LINE#         298
  C:0E68H         LINE#         299
  C:0E6AH         LINE#         300
  C:0E75H         LINE#         301
  C:0E78H         LINE#         302
  C:0E78H         LINE#         303
  C:0E7AH         LINE#         304
  C:0E7DH         LINE#         305
  C:0E7DH         LINE#         306
  C:0E80H         LINE#         310
  C:0E80H         LINE#         311
  -------         ENDPROC       UART1_IT_FUN
  -------         ENDMOD        HAL_UART

  -------         MODULE        HAL_EEPROM
  C:0000H         SYMBOL        _ICE_DUMMY_
  C:0FF0H         PUBLIC        _eeprom_erase
  D:0080H         PUBLIC        P0
  D:0090H         PUBLIC        P1
  D:00A0H         PUBLIC        P2
BL51 BANKED LINKER/LOCATER V6.22.2.0                                                  05/28/2021  22:01:34  PAGE 18


  D:00B0H         PUBLIC        P3
  D:00C0H         PUBLIC        P4
  C:0FD3H         PUBLIC        _eeprom_read
  D:00A8H         PUBLIC        IE
  D:00C5H         PUBLIC        IAP_CMD
  D:00B8H         PUBLIC        IP
  C:0FC0H         PUBLIC        _eeprom_write
  D:00C3H         PUBLIC        IAP_ADDRH
  D:00C4H         PUBLIC        IAP_ADDRL
  C:0FE2H         PUBLIC        eeprom_off
  X:0000H         PUBLIC        eeprom_buf
  D:0098H         PUBLIC        SCON
  D:0088H         PUBLIC        TCON
  D:00C7H         PUBLIC        IAP_CONTR
  C:0E1BH         PUBLIC        _eeprom_read_ex
  D:00C2H         PUBLIC        IAP_DATA
  C:0640H         PUBLIC        _eeprom_write_ex
  D:00C6H         PUBLIC        IAP_TRIG
  D:00D0H         PUBLIC        PSW
  C:09CDH         SYMBOL        Com005E
  C:09CDH         SYMBOL        L?0095
  C:09F0H         SYMBOL        L?0096
  C:09F9H         SYMBOL        L?0097
  C:0A06H         SYMBOL        L?0098
  C:0A11H         SYMBOL        L?0099
  C:0A2BH         SYMBOL        L?0100
  C:0A2FH         SYMBOL        L?0101
  C:0A36H         SYMBOL        L?0102
  C:0A42H         SYMBOL        L?0103
  -------         PROC          COM005E
  -------         ENDPROC       COM005E
  -------         PROC          EEPROM_OFF
  C:0FE2H         LINE#         29
  C:0FE2H         LINE#         30
  C:0FE5H         LINE#         31
  C:0FE7H         LINE#         32
  C:0FE9H         LINE#         33
  C:0FECH         LINE#         34
  C:0FEFH         LINE#         35
  -------         ENDPROC       EEPROM_OFF
  -------         PROC          _EEPROM_ERASE
  D:0006H         SYMBOL        addr
  C:0FF0H         LINE#         39
  C:0FF0H         LINE#         40
  C:0FF3H         LINE#         41
  C:0FF6H         LINE#         42
  C:0FF6H         LINE#         43
  C:0FF9H         LINE#         44
  C:0FFAH         LINE#         45
  -------         ENDPROC       _EEPROM_ERASE
  -------         PROC          _EEPROM_WRITE
  D:0006H         SYMBOL        addr
  D:0005H         SYMBOL        dat
  C:0FC0H         LINE#         50
  C:0FC0H         LINE#         51
  C:0FC3H         LINE#         52
  C:0FC6H         LINE#         53
BL51 BANKED LINKER/LOCATER V6.22.2.0                                                  05/28/2021  22:01:34  PAGE 19


  C:0FCAH         LINE#         54
  C:0FCCH         LINE#         55
  C:0FCFH         LINE#         56
  C:0FD0H         LINE#         57
  -------         ENDPROC       _EEPROM_WRITE
  -------         PROC          _EEPROM_READ
  D:0006H         SYMBOL        addr
  -------         DO            
  D:0007H         SYMBOL        dat
  -------         ENDDO         
  C:0FD3H         LINE#         62
  C:0FD3H         LINE#         64
  C:0FD6H         LINE#         65
  C:0FD9H         LINE#         66
  C:0FD9H         LINE#         67
  C:0FDCH         LINE#         68
  C:0FDDH         LINE#         69
  C:0FDFH         LINE#         70
  -------         ENDPROC       _EEPROM_READ
  -------         PROC          _EEPROM_READ_EX
  D:004DH         SYMBOL        addr
  D:004FH         SYMBOL        dat
  D:0052H         SYMBOL        num
  -------         DO            
  D:0004H         SYMBOL        i
  -------         ENDDO         
  C:0E1BH         LINE#         77
  C:0E25H         LINE#         79
  C:0E31H         LINE#         80
  C:0E4AH         LINE#         81
  C:0E51H         LINE#         82
  -------         ENDPROC       _EEPROM_READ_EX
  -------         PROC          _EEPROM_WRITE_EX
  D:0006H         SYMBOL        addr
  D:0001H         SYMBOL        dat
  D:002CH         SYMBOL        num
  -------         DO            
  D:002EH         SYMBOL        num_yu
  D:0004H         SYMBOL        area
  D:0030H         SYMBOL        area_addr_yu
  D:0032H         SYMBOL        area_start_addr
  D:0006H         SYMBOL        area_stop_addr
  D:0034H         SYMBOL        addr_offset
  D:0036H         SYMBOL        dat_offset
  D:0038H         SYMBOL        address
  D:003AH         SYMBOL        i
  -------         ENDDO         
  C:0640H         LINE#         88
  C:0640H         LINE#         95
  C:0645H         LINE#         98
  C:0649H         LINE#         99
  C:064FH         LINE#         100
  C:064FH         LINE#         101
  C:0656H         LINE#         102
  C:065FH         LINE#         103
  C:0666H         LINE#         104
  C:0671H         LINE#         105
BL51 BANKED LINKER/LOCATER V6.22.2.0                                                  05/28/2021  22:01:34  PAGE 20


  C:067CH         LINE#         106
  C:0681H         LINE#         107
  C:0684H         LINE#         108
  C:0692H         LINE#         109
  C:0692H         LINE#         110
  C:0692H         LINE#         111
  C:06A0H         LINE#         112
  C:06A0H         LINE#         113
  C:06A9H         LINE#         114
  C:06AEH         LINE#         115
  C:06B4H         LINE#         116
  C:06C3H         LINE#         117
  C:06C3H         LINE#         118
  C:06C3H         LINE#         119
  C:06C8H         LINE#         120
  C:06CBH         LINE#         121
  C:06D9H         LINE#         122
  C:06D9H         LINE#         123
  C:06D9H         LINE#         124
  C:06E7H         LINE#         125
  C:06E7H         LINE#         126
  C:06F0H         LINE#         127
  C:06F5H         LINE#         128
  C:06FBH         LINE#         129
  C:0709H         LINE#         130
  C:0715H         LINE#         131
  C:0722H         LINE#         132
  C:072EH         LINE#         133
  C:072EH         LINE#         134
  -------         ENDPROC       _EEPROM_WRITE_EX
  -------         ENDMOD        HAL_EEPROM

  -------         MODULE        ?C?FPMUL
  C:0026H         PUBLIC        ?C?FPMUL
  -------         ENDMOD        ?C?FPMUL

  -------         MODULE        ?C?FPDIV
  C:012FH         PUBLIC        ?C?FPDIV
  -------         ENDMOD        ?C?FPDIV

  -------         MODULE        ?C?FCAST
  C:01D6H         PUBLIC        ?C?FCASTC
  C:01D1H         PUBLIC        ?C?FCASTI
  C:01CCH         PUBLIC        ?C?FCASTL
  -------         ENDMOD        ?C?FCAST

  -------         MODULE        ?C?CASTF
  C:020AH         PUBLIC        ?C?CASTF
  -------         ENDMOD        ?C?CASTF

  -------         MODULE        ?C?CLDPTR
  C:028BH         PUBLIC        ?C?CLDPTR
  -------         ENDMOD        ?C?CLDPTR

  -------         MODULE        ?C?CLDOPTR
  C:02A4H         PUBLIC        ?C?CLDOPTR
  -------         ENDMOD        ?C?CLDOPTR
BL51 BANKED LINKER/LOCATER V6.22.2.0                                                  05/28/2021  22:01:34  PAGE 21



  -------         MODULE        ?C?CSTPTR
  C:02D1H         PUBLIC        ?C?CSTPTR
  -------         ENDMOD        ?C?CSTPTR

  -------         MODULE        ?C?CSTOPTR
  C:02E3H         PUBLIC        ?C?CSTOPTR
  -------         ENDMOD        ?C?CSTOPTR

  -------         MODULE        ?C?ILDOPTR
  C:0305H         PUBLIC        ?C?ILDOPTR
  -------         ENDMOD        ?C?ILDOPTR

  -------         MODULE        ?C?ISTOPTR
  C:033DH         PUBLIC        ?C?ISTOPTR
  -------         ENDMOD        ?C?ISTOPTR

  -------         MODULE        ?C?LMUL
  C:036AH         PUBLIC        ?C?LMUL
  -------         ENDMOD        ?C?LMUL

  -------         MODULE        ?C?ULDIV
  C:03F5H         PUBLIC        ?C?ULDIV
  -------         ENDMOD        ?C?ULDIV

  -------         MODULE        ?C?SLDIV
  C:0D98H         PUBLIC        ?C?SLDIV
  -------         ENDMOD        ?C?SLDIV

  -------         MODULE        ?C?LNEG
  C:0487H         PUBLIC        ?C?LNEG
  -------         ENDMOD        ?C?LNEG

  -------         MODULE        ?C?ULCMP
  C:0495H         PUBLIC        ?C?ULCMP
  -------         ENDMOD        ?C?ULCMP

Program Size: data=119.0 xdata=512 code=4125
LINK/LOCATE RUN COMPLETE.  0 WARNING(S),  0 ERROR(S)
