:05001D00120E5780FEE9
:030E5700D2AF22F5
:0C0E47001202D1AB3FAA40A94102028B6D
:1009B90012028BFF540714603704706AEFC4540F96
:1009C90030E004D2888002C28812028BFFC413541B
:1009D9000730E004D2B88002C2B8D2B2EF131313C1
:1009E900541F30E004D2A88002C2A84336018039DE
:1009F90012028BFFC4540F30E004D28A8002C28AEB
:100A0900EFC413540730E004D2BA8002C2BAD2B399
:100A190012028B131313541F30E004D2AA8002C2AE
:0C0A2900AA43360280037F01227F0022D6
:100DAA00EF14601004701AC288C2B8D2B2C2A85333
:100DBA0036FE8010C288C2B8D2B2C2A85336FD80AD
:070DCA00037F01227F0022DC
:100CFB008B398A3A893B12028B44081202D1AB39E9
:100D0B00AA3AA93B12028B5407146007047008D24D
:0D0D1B00A88007D2AA80037F01227F00225A
:100D28008B3C8A3D893E12028B54F71202D1AB3CB0
:100D3800AA3DA93E12028B5407146007047008C22A
:0D0D4800A88007C2AA80037F01227F00223D
:100C8E008B3F8A408941ED14601404702C120E4A79
:100C9E0054F8120E474408120E4744108011120EDB
:100CAE004A54F84401120E4754F7120E4754EF12ED
:0F0CBE000E4754DF1202D180037F01227F0022F4
:100938001202D1AB48E54A2401F9E43549FA12021A
:100948008B54FE1202D1AB48AA49A94A02028BACC9
:1009580025AD26E41201D17B007A247974784912F6
:10096800012F7B007A24797478492254EF1202D13E
:10097800AB48AA49A94A900002E475F00112031B8A
:1009880002028BF527AE25AF26FCFDAB2AAA29A9C2
:1009980028A827C30204739000021202E3AEF022D3
:1009A80012028B5407142212028BC413135401141D
:0109B800221C
:10061A0012028BFF54071470030206AA0460030235
:10062A000736EFC41313540330E00AE58954FC4437
:10063A0001F5898008E58954FC4402F58912028B88
:10064A00FFC413540730E00543890480035389FB30
:10065A00EFC4540F30E00543890880035389F71229
:10066A00028BFDC4131313540130E004D2A9800293
:10067A00C2A99000011202A430E004D2B98002C2D9
:10068A00B912099FF58AEEF58CED131313541F3036
:10069A00E006C28DD28C8002C28C43370102073930
:1006AA0012028BFFC41313540330E00AE58954CFB6
:1006BA004410F5898008E58954CF4420F589EFC4B0
:1006CA0013540730E00543894080035389BF12025F
:1006DA008BFFC4540F30E005438980800353897F20
:1006EA00EFC4131313540130E004D2AB8002C2AB3F
:1006FA009000011202A430E004D2BB8002C2BB12F5
:10070A00099FF58BEEF58D12028B131313541F30CC
:10071A00E006C28FD28E8002C28EE53830E008E54C
:10072A003730E1037F042243370280037F01227FAF
:02073A0000229B
:100DD100EF14600F047018C28CC2A95389F0533705
:100DE100FE800FC28EC2AB53890F5337FD80037F44
:050DF10001227F002239
:100CCD008B428A43894412028B44081202D1AB42F3
:100CDD00AA43A9441209A8600904700CC28DD28CD4
:0E0CED008009C28FD28E80037F01227F0022F9
:100D80008B458A46894712028B54F71202D1AB4534
:100D9000AA46A9471209A86007047008C28C8007F8
:0A0DA000C28E80037F01227F002233
:100003001209A8600C04701112099FF58AEEF58C91
:0A0013002212099FF58BEEF58D22F5
:0A0A35008C258D268B228A2389244C
:100A3F001209AF602E047060E4F52A752901F528BC
:100A4F0012098B50037F022212095712002612023D
:100A5F000AC3E49FFB74019400FAEBFE2400FFEA43
:100A6F003E8027E4F52AF52975280112098B5003DA
:100A7F007F022212095712002612020A8F2A8E298C
:100A8F008D288C27C3E49FFFE49EAB22AA23A924C1
:0A0A9F009000028FF012031B7F008D
:010AA900222A
:040C03008C4E8D4F37
:100C07001209AF602B047038D3E54F94FFE54E947B
:100C17000040037F0322AD4FEDFFC3E49FFFEFFECC
:100C2700C3E49DCD74019400CD2400FFED3E800800
:100C3700C3E4954FFFE4954E9000028FF012031B1B
:020C47007F002C
:010C49002288
:100B6C008B488A49894AED14601C04703C12094E6A
:100B7C0054F812094B440812094B120973448012A1
:100B8C0009384440801912094E54F8440112094B9B
:100B9C0054F712094B120973547F12093854BF12BF
:0F0BAC00094B54DF1202D180037F01227F002208
:030E53000150004B
:1007F5001202D1AB08AA09A90A02028B1202D1ABD7
:100805004BAA4CA94D02028BE47FE87E03FDFC1246
:100815000348AB0EAA0DA90CA80B227F14FEFDFC04
:10082500AB1DAA1CA91BA81A020473FD7401940030
:10083500FCEDFE2400FFEC3EAB08AA09A90A9000D6
:10084500028FF002031BE50A2401F9E43509FA02D7
:10085500028BE47F14FEFDFCAB21AA20A91FA81E74
:1008650022AF0EAE0DAD0CAC0BD302047312028B8E
:10087500FF540714228D99EF131313541F2274018B
:100885002530F530E4352FF52F229000011202A412
:100895001313540722AB2EAA2FA93012028BFD2267
:0708A5007F127E7AFDFC22A8
:10073C0012087260030207EF12087C30E004D2AC9E
:10074C008002C2AC12028BFFC4540F30E004D2BC46
:10075C008002C2BCEFC413540730E004D29C800268
:10076C00C29C12028BFFC41313540330E005438761
:10077C0080800353877FEFC4131313540130E004BC
:10078C00D29D8002C29D9000011202A454031460F9
:10079C000F14601614601D2403702153983F801CA5
:1007AC00E598543F4440F5988012E598543F4480B6
:1007BC00F5988008E598543F44C0F59853897F53C9
:1007CC0089BFE58954CF4420F5899000021202E3D9
:1007DC00AEF0F58BEEF58DC28FD28E4338014337D8
:0907EC000280037F01227F00223C
:100DF600EF147018C2ACC2BCC29C53877FC29D530D
:100E0600983FC28E5338FE5337FD80037F01227F01
:020E16000022B8
:0E0484008B088A09890A8F0E8E0D8D0C8C0B49
:10049200E50FFD7C00D394057480948040037F03B4
:1004A20022E50F540725E025E0FFAB0812084B5464
:1004B200E34F1202D1ED4CAB08700912084B54FC09
:1004C2004401800512084B44031202D11207F8546A
:1004D2007F1207F544201207F544081207F554EF7E
:1004E2001202D1120817E41208A51203D38F1012B8
:1004F2000817E47F247EF4FDFC1203D38F11AF10A2
:10050200AB07E4FAF9F81208A5120C4A8F158E14FB
:100512008D138C12AF11AB07E4FAF9F87F247EF445
:10052200FDFC120C4A8F198E188D178C16AB15AA6A
:1005320014A913A812120866401AE515950EF51DA6
:10054200E514950DF51CE513950CF51BE512950BBD
:10055200F51A8019C3E50E9515F51DE50D9514F5EF
:100562001CE50C9513F51BE50B9512F51AAB19AAB0
:1005720018A917A816120866401AE519950EF52152
:10058200E518950DF520E517950CF51FE516950B69
:10059200F51E8019C3E50E9519F521E50D9518F59F
:1005A20020E50C9517F51FE50B9516F51EAB1DAA58
:1005B2001CA91BA81A12080D1203D38F1D8E1C8DA5
:1005C2001B8C1A12085D12080D1203D38F218E2084
:1005D2008D1F8C1EE4D3120820400C120857D31230
:1005E200047340037F0222E4C3120820500F120753
:1005F200F854BF1202D1C3E4951012083012085702
:10060200C3120473500F1207F844401202D1C3E41C
:0706120095111208307F0072
:0106190022BE
:100B0D0012028B540714705112088F24FE601614B4
:100B1D00601F14602024037020ED30D004C29B8030
:100B2D001BD29B8017ED30D004D29B800FC29B80CF
:100B3D000BD29B8007C29B80037F03228D991202EB
:100B4D008B131313541F30E009755001E550600CE1
:0F0B5D0080FA3099FDC29980037F01227F002228
:100E1800120872701612087A30E009755001E55010
:100E2800600C80FA3099FDC29980037F01227F000F
:010E38002297
:100D55001208727020E5356004D29B8002C29B1296
:100D6500087A30E009755001E550600C80FA309939
:0B0D7500FDC29980037F01227F002255
:100BBB008B2B8A2C892D12088FFF7E00D394007407
:100BCB00809480500AC3EF94057480948050131264
:100BDB00089A6021AB2BAA2CA92D120B0D1208839E
:100BEB0080ED12089A600EAB2BAA2CA92D120E18B1
:080BFB0012088380ED7F002247
:060AAA008B4B8A4C894DC4
:100AB000ED14705312080454F844011202D1AB4BE8
:100AC000AA4CA94DE4F50F7FB07E04FDFC1204840E
:100AD000EF600122120804440812080154EF1208C2
:100AE000014420120801547F1202D1AB4BE54D2482
:100AF00001F9E4354CFA12028B54FC44011202D184
:0C0B000054E31202D180037F01227F0029
:010B0C0022C6
:03002300020E3991
:0E0E3900309905C299755000309802C2983267
:10002600EC4D6011E8497017ED33EC3304600DE4D4
:10003600FCFFFEFD22E933E8330470F80202761273
:10004600024158046009E4CC248150062850090274
:10005600028028400302027DC0E0EB4A7044B9806A
:1000660006D0E0FB02026CEF4E701CBD8008EBFF71
:10007600EAFEE9FD80EBE98DF0A4FEE5F002010F52
:10008600E9CDF9EAFEEBFFEF89F0A4FCE5F0CE89B5
:10009600F0A42EFFE435F0CD89F0A42DFEE435F072
:1000A6008067EF4E7005BD80D780C3EF8BF0A4ACA0
:1000B600F0EE8BF0A42CFCE435F0F8EF8AF0A42CDB
:1000C600E5F038FCE433CB8DF0A42CFCE5F03BF8EE
:1000D600EE8AF0A42CFCE5F038F8E433CF89F0A4DE
:1000E6002CFCE5F038CF3400CE89F0A42FFFE5F0E4
:1000F6003EFEE433C98DF0A42EFEE5F039CD8AF03C
:10010600A42FFFE5F03EFEE43DFD33D0E0FB5007B3
:100116000BBB000F020280EC2CFCEF33FFEE33FE2C
:06012600ED33FD0202585A
:10012C00020280EC5D046005E8590470030202765B
:10013C00120241580460F6EC4860F2EC7004FDFECB
:10014C00FF22C860DB2481C85009C39860025006A6
:10015C0002027D9850CAF582E9294B4A7005AB82A0
:10016C0002026C75F0007C1A7880C3EF9BEE9AED5E
:10017C0099400DC3EF9BFFEE9AFEED99FDE842F01E
:10018C00DC23ACF0D0E0FFD0E0FED0E0FDAB822071
:10019C00E7101BEB60BAEC2CFCEF33FFEE33FEEDFB
:1001AC0033FD020258E803F830E705C0F075F000A3
:1001BC00EF2FFFEE33FEED33FD40B830E7C280AADF
:1001CC0075F020800E75F010800575F0087D007EAE
:1001DC00007F003392D530D503120465EC33401008
:1001EC00EF33FFEE33FEED33FDEC33FCD5F0ED22B7
:0E01FC00E5F0247EA2D513CC92E7CDCEFF22F3
:10020A00EDD2E7CD33EC3392D524814006E4FFFEEC
:10021A00FDFC22FCE4CFCECDCC24E0501174FF804B
:10022A00EDC3CC13CCCD13CDCE13CECF13CF0470E8
:07023A00F030D5DE0204657F
:10024100E9D2E7C933E833F892D5EDD2E7CD33EC03
:0702510033FC5002B2D5227C
:10025800EC30E7100FBF000C0EBE00080DBD000407
:100268000BEB6014A2D5EB13FCED92E7FD2274FFB3
:10027800FCFDFEFF22E480F8A2D574FF13FC7D800C
:03028800E480EF20
:030000000208AC47
:0C08AC00787FE4F6D8FD7581500208F357
:10028B00BB010689828A83E0225002E722BBFE0271
:09029B00E32289828A83E49322A4
:1002A400BB010CE58229F582E5833AF583E022500F
:1002B40006E92582F8E622BBFE06E92582F8E22259
:0D02C400E58229F582E5833AF583E4932273
:1002D100BB010689828A83F0225002F722BBFE010C
:0202E100F32206
:1002E300BB0110E58229F582E5833AF583E0F5F059
:1002F300A3E0225009E92582F886F008E622BBFE36
:100303000AE92582F8E2F5F008E222E5832AF5837B
:08031300E993F5F0A3E9932240
:10031B00F8BB0111E58229F582E5833AF583E8F014
:10032B00E5F0A3F0225009E92582C8F608A6F022D1
:0D033B00BBFE09E92582C8F2E5F008F222B8
:10034800E88FF0A4CC8BF0A42CFCE98EF0A42CFC54
:100358008AF0EDA42CFCEA8EF0A4CDA8F08BF0A4D2
:100368002DCC3825F0FDE98FF0A42CCD35F0FCEB31
:100378008EF0A4FEA9F0EB8FF0A4CFC5F02ECD39F6
:0F038800FEE43CFCEAA42DCE35F0FDE43CFC2263
:1003970075F008758200EF2FFFEE33FECD33CDCC1D
:1003A70033CCC58233C5829BED9AEC99E5829840A0
:1003B7000CF582EE9BFEED9AFDEC99FC0FD5F0D67D
:1003C700E4CEFBE4CDFAE4CCF9A88222B800C1B9A7
:1003D7000059BA002DEC8BF084CFCECDFCE5F0CBE5
:1003E700F97818EF2FFFEE33FEED33FDEC33FCEB1E
:1003F70033FB10D703994004EB99FB0FD8E5E4F9D9
:10040700FA227818EF2FFFEE33FEED33FDEC33FCC5
:10041700C933C910D7059BE99A4007EC9BFCE99AB9
:10042700F90FD8E0E4C9FAE4CCFB2275F010EF2FFE
:10043700FFEE33FEED33FDCC33CCC833C810D707FE
:100447009BEC9AE899400AED9BFDEC9AFCE899F839
:0E0457000FD5F0DAE4CDFBE4CCFAE4C8F922CC
:100C4A00C2D5E830E70FB2D5E4C39BFBE49AFAE4D5
:100C5A0099F9E498F8EC30E717B2D5120C80120330
:100C6A00D3E4C39BFBE49AFAE499F9E498F8800385
:100C7A001203D330D50DE4C39FFFE49EFEE49DFD2D
:040C8A00E49CFC22C8
:0E046500C3E49FFFE49EFEE49DFDE49CFC22A8
:10047300EB9FF5F0EA9E42F0E99D42F0E89C45F0DF
:010483002256
:1008B80002001DE493A3F8E493A34003F68001F239
:1008C80008DFF48029E493A3F85407240CC8C33341
:1008D800C4540F4420C8834004F456800146F6DF10
:1008E800E4800B0102040810204080900E53E47E3F
:1008F800019360BCA3FF543F30E509541FFEE49305
:10090800A360010ECF54C025E060A840B8E493A3CB
:10091800FAE493A3F8E493A3C8C582C8CAC583CAF6
:10092800F0A3C8C582C8CAC583CADFE9DEE780BEAE
:010E5600009B
:00000001FF
