BL51 BANKED LINKER/LOCATER V6.22.2.0                                                    05/24/2021  23:49:10  PAGE 1


BL51 BANKED LINKER/LOCATER V6.22.2.0, INVOKED BY:
C:\KEIL_V5\C51\BIN\BL51.EXE .\Objects\main.obj, .\Objects\hal_config.obj, .\Objects\hal_exti.obj, .\Objects\hal_timer.ob
>> j, .\Objects\hal_uart.obj TO .\Objects\ecbm_hal PRINT (.\Listings\ecbm_hal.m51) DISABLEWARNING (16)


MEMORY MODEL: SMALL WITH FLOATING POINT ARITHMETIC


INPUT MODULES INCLUDED:
  .\Objects\main.obj (MAIN)
  .\Objects\hal_config.obj (HAL_CONFIG)
  .\Objects\hal_exti.obj (HAL_EXTI)
  .\Objects\hal_timer.obj (HAL_TIMER)
  .\Objects\hal_uart.obj (HAL_UART)
  C:\KEIL_V5\C51\LIB\C51FPS.LIB (?C?FPMUL)
  C:\KEIL_V5\C51\LIB\C51FPS.LIB (?C?FPDIV)
  C:\KEIL_V5\C51\LIB\C51FPS.LIB (?C?FCAST)
  C:\KEIL_V5\C51\LIB\C51FPS.LIB (?C?CASTF)
  C:\KEIL_V5\C51\LIB\C51FPS.LIB (?C?FPGETOPN)
  C:\KEIL_V5\C51\LIB\C51S.LIB (?C_STARTUP)
  C:\KEIL_V5\C51\LIB\C51S.LIB (?C?CLDPTR)
  C:\KEIL_V5\C51\LIB\C51S.LIB (?C?CLDOPTR)
  C:\KEIL_V5\C51\LIB\C51S.LIB (?C?CSTPTR)
  C:\KEIL_V5\C51\LIB\C51S.LIB (?C?ILDOPTR)
  C:\KEIL_V5\C51\LIB\C51S.LIB (?C?ISTOPTR)
  C:\KEIL_V5\C51\LIB\C51S.LIB (?C?LMUL)
  C:\KEIL_V5\C51\LIB\C51S.LIB (?C?ULDIV)
  C:\KEIL_V5\C51\LIB\C51S.LIB (?C?SLDIV)
  C:\KEIL_V5\C51\LIB\C51S.LIB (?C?LNEG)
  C:\KEIL_V5\C51\LIB\C51S.LIB (?C?ULCMP)
  C:\KEIL_V5\C51\LIB\C51S.LIB (?C_INIT)


LINK MAP OF MODULE:  .\Objects\ecbm_hal (MAIN)


            TYPE    BASE      LENGTH    RELOCATION   SEGMENT NAME
            -----------------------------------------------------

            * * * * * * *   D A T A   M E M O R Y   * * * * * * *
            REG     0000H     0008H     ABSOLUTE     "REG BANK 0"
            DATA    0008H     001AH     UNIT         ?DT?_UART_CONFIG?HAL_UART
            DATA    0022H     0009H     UNIT         ?DT?_TIMER_SET_TIME?HAL_TIMER
            DATA    002BH     0006H     UNIT         ?DT?_UART_STRING?HAL_UART
            DATA    0031H     0005H     UNIT         ?DT?_UART_CHAR_9?HAL_UART
            DATA    0036H     0003H     UNIT         ?DT?HAL_CONFIG
            DATA    0039H     0003H     UNIT         ?DT?_EXTI_START?HAL_EXTI
            DATA    003CH     0003H     UNIT         ?DT?_EXTI_STOP?HAL_EXTI
            DATA    003FH     0003H     UNIT         ?DT?_EXTI_GET_CONFIGURATION_WIZARD?HAL_EXTI
            DATA    0042H     0003H     UNIT         ?DT?_TIMER_START?HAL_TIMER
            DATA    0045H     0003H     UNIT         ?DT?_TIMER_STOP?HAL_TIMER
            DATA    0048H     0003H     UNIT         ?DT?_TIMER_GET_CONFIGURATION_WIZARD?HAL_TIMER
            DATA    004BH     0003H     UNIT         ?DT?_UART_GET_CONFIGURATION_WIZARD?HAL_UART
            DATA    004EH     0002H     UNIT         ?DT?_TIMER_SET_COUNT?HAL_TIMER
            DATA    0050H     0001H     UNIT         ?DT?HAL_UART
            IDATA   0051H     0001H     UNIT         ?STACK

            * * * * * * *   C O D E   M E M O R Y   * * * * * * *
BL51 BANKED LINKER/LOCATER V6.22.2.0                                                  05/24/2021  23:49:10  PAGE 2


            CODE    0000H     0003H     ABSOLUTE     
            CODE    0003H     001AH     UNIT         ?PR?_TIMER_RELOAD?HAL_TIMER
            CODE    001DH     0005H     UNIT         ?PR?MAIN?MAIN
                    0022H     0001H                  *** GAP ***
            CODE    0023H     0003H     ABSOLUTE     
            CODE    0026H     045EH     UNIT         ?C?LIB_CODE
            CODE    0484H     0196H     UNIT         ?PR?_UART_CONFIG?HAL_UART
            CODE    061AH     0122H     UNIT         ?PR?_TIMER_INIT?HAL_TIMER
            CODE    073CH     00B9H     UNIT         ?PR?_UART_INIT?HAL_UART
            CODE    07F5H     00B7H     UNIT         ?PR?HAL_UART
            CODE    08ACH     008CH     UNIT         ?C_C51STARTUP
            CODE    0938H     0081H     UNIT         ?PR?HAL_TIMER
            CODE    09B9H     007CH     UNIT         ?PR?_EXTI_INIT?HAL_EXTI
            CODE    0A35H     0075H     UNIT         ?PR?_TIMER_SET_TIME?HAL_TIMER
            CODE    0AAAH     0063H     UNIT         ?PR?_UART_GET_CONFIGURATION_WIZARD?HAL_UART
            CODE    0B0DH     005FH     UNIT         ?PR?_UART_CHAR?HAL_UART
            CODE    0B6CH     004FH     UNIT         ?PR?_TIMER_GET_CONFIGURATION_WIZARD?HAL_TIMER
            CODE    0BBBH     0048H     UNIT         ?PR?_UART_STRING?HAL_UART
            CODE    0C03H     0047H     UNIT         ?PR?_TIMER_SET_COUNT?HAL_TIMER
            CODE    0C4AH     0044H     UNIT         ?C?LDIV
            CODE    0C8EH     003FH     UNIT         ?PR?_EXTI_GET_CONFIGURATION_WIZARD?HAL_EXTI
            CODE    0CCDH     002EH     UNIT         ?PR?_TIMER_START?HAL_TIMER
            CODE    0CFBH     002DH     UNIT         ?PR?_EXTI_START?HAL_EXTI
            CODE    0D28H     002DH     UNIT         ?PR?_EXTI_STOP?HAL_EXTI
            CODE    0D55H     002BH     UNIT         ?PR?_UART_CHAR_9?HAL_UART
            CODE    0D80H     002AH     UNIT         ?PR?_TIMER_STOP?HAL_TIMER
            CODE    0DAAH     0027H     UNIT         ?PR?_EXTI_DEINIT?HAL_EXTI
            CODE    0DD1H     0025H     UNIT         ?PR?_TIMER_DEINIT?HAL_TIMER
            CODE    0DF6H     0022H     UNIT         ?PR?_UART_DEINIT?HAL_UART
            CODE    0E18H     0021H     UNIT         ?PR?_UART_CHAR_8?HAL_UART
            CODE    0E39H     000EH     UNIT         ?PR?UART1_IT_FUN?HAL_UART
            CODE    0E47H     000CH     UNIT         ?PR?HAL_EXTI
            CODE    0E53H     0004H     UNIT         ?C_INITSEG
            CODE    0E57H     0003H     UNIT         ?PR?SYSTEM_INIT?HAL_CONFIG



OVERLAY MAP OF MODULE:   .\Objects\ecbm_hal (MAIN)


SEGMENT
  +--> CALLED SEGMENT
---------------------
?C_C51STARTUP
  +--> ?PR?MAIN?MAIN
  +--> ?C_INITSEG

?PR?MAIN?MAIN
  +--> ?PR?SYSTEM_INIT?HAL_CONFIG



SYMBOL TABLE OF MODULE:  .\Objects\ecbm_hal (MAIN)

  VALUE           TYPE          NAME
  ----------------------------------

BL51 BANKED LINKER/LOCATER V6.22.2.0                                                  05/24/2021  23:49:10  PAGE 3


  -------         MODULE        MAIN
  C:0000H         SYMBOL        _ICE_DUMMY_
  D:0080H         PUBLIC        P0
  D:0090H         PUBLIC        P1
  D:00A0H         PUBLIC        P2
  D:00B0H         PUBLIC        P3
  D:00A8H         PUBLIC        IE
  D:00B8H         PUBLIC        IP
  C:001DH         PUBLIC        main
  D:0098H         PUBLIC        SCON
  D:0088H         PUBLIC        TCON
  D:00D0H         PUBLIC        PSW
  -------         PROC          MAIN
  C:001DH         LINE#         2
  C:001DH         LINE#         3
  C:0020H         LINE#         4
  C:0020H         LINE#         5
  -------         ENDPROC       MAIN
  -------         ENDMOD        MAIN

  -------         MODULE        HAL_CONFIG
  C:0000H         SYMBOL        _ICE_DUMMY_
  D:0080H         PUBLIC        P0
  D:0090H         PUBLIC        P1
  D:00A0H         PUBLIC        P2
  D:00B0H         PUBLIC        P3
  B:00A8H.7       PUBLIC        EA
  D:00A8H         PUBLIC        IE
  D:00B8H         PUBLIC        IP
  D:0036H         PUBLIC        peripheral
  D:0098H         PUBLIC        SCON
  D:0088H         PUBLIC        TCON
  C:0E57H         PUBLIC        system_init
  D:00D0H         PUBLIC        PSW
  -------         PROC          SYSTEM_INIT
  C:0E57H         LINE#         10
  C:0E57H         LINE#         11
  C:0E59H         LINE#         12
  -------         ENDPROC       SYSTEM_INIT
  -------         ENDMOD        HAL_CONFIG

  -------         MODULE        HAL_EXTI
  C:0000H         SYMBOL        _ICE_DUMMY_
  D:0080H         PUBLIC        P0
  D:0090H         PUBLIC        P1
  D:00A0H         PUBLIC        P2
  D:00B0H         PUBLIC        P3
  D:00A8H         PUBLIC        IE
  D:00B8H         PUBLIC        IP
  C:0DAAH         PUBLIC        _exti_deinit
  D:0098H         PUBLIC        SCON
  D:0088H         PUBLIC        TCON
  B:00B0H.2       PUBLIC        P32
  B:00B0H.3       PUBLIC        P33
  C:0C8EH         PUBLIC        _exti_get_configuration_wizard
  B:0088H.0       PUBLIC        IT0
  B:00A8H.0       PUBLIC        EX0
BL51 BANKED LINKER/LOCATER V6.22.2.0                                                  05/24/2021  23:49:10  PAGE 4


  C:0CFBH         PUBLIC        _exti_start
  B:0088H.2       PUBLIC        IT1
  B:00A8H.2       PUBLIC        EX1
  C:09B9H         PUBLIC        _exti_init
  B:00B8H.0       PUBLIC        PX0
  B:00B8H.2       PUBLIC        PX1
  C:0D28H         PUBLIC        _exti_stop
  D:00D0H         PUBLIC        PSW
  C:0E47H         SYMBOL        Com0075
  C:0E47H         SYMBOL        L?0118
  C:0E47H         SYMBOL        L?0119
  C:0E4AH         SYMBOL        L?0120
  -------         PROC          COM0075
  -------         ENDPROC       COM0075
  -------         PROC          _EXTI_INIT
  D:0001H         SYMBOL        dev
  C:09B9H         LINE#         7
  C:09B9H         LINE#         8
  C:09C5H         LINE#         10
  C:09C5H         LINE#         11
  C:09CCH         LINE#         12
  C:09CEH         LINE#         13
  C:09D0H         LINE#         14
  C:09D2H         LINE#         15
  C:09D2H         LINE#         16
  C:09DDH         LINE#         17
  C:09DFH         LINE#         18
  C:09E1H         LINE#         19
  C:09E3H         LINE#         20
  C:09E3H         LINE#         21
  C:09E5H         LINE#         22
  C:09EEH         LINE#         23
  C:09F0H         LINE#         24
  C:09F2H         LINE#         25
  C:09F4H         LINE#         26
  C:09F4H         LINE#         27
  C:09F7H         LINE#         28
  C:09F9H         LINE#         31
  C:09F9H         LINE#         32
  C:0A03H         LINE#         33
  C:0A05H         LINE#         34
  C:0A07H         LINE#         35
  C:0A09H         LINE#         36
  C:0A09H         LINE#         37
  C:0A11H         LINE#         38
  C:0A13H         LINE#         39
  C:0A15H         LINE#         40
  C:0A17H         LINE#         41
  C:0A17H         LINE#         42
  C:0A19H         LINE#         43
  C:0A24H         LINE#         44
  C:0A26H         LINE#         45
  C:0A28H         LINE#         46
  C:0A2AH         LINE#         47
  C:0A2AH         LINE#         48
  C:0A2DH         LINE#         49
  C:0A2FH         LINE#         51
BL51 BANKED LINKER/LOCATER V6.22.2.0                                                  05/24/2021  23:49:10  PAGE 5


  C:0A32H         LINE#         52
  C:0A32H         LINE#         54
  C:0A34H         LINE#         56
  -------         ENDPROC       _EXTI_INIT
  -------         PROC          _EXTI_DEINIT
  D:0007H         SYMBOL        id
  C:0DAAH         LINE#         60
  C:0DAAH         LINE#         61
  C:0DB1H         LINE#         63
  C:0DB1H         LINE#         64
  C:0DB3H         LINE#         65
  C:0DB5H         LINE#         66
  C:0DB7H         LINE#         67
  C:0DB9H         LINE#         68
  C:0DBCH         LINE#         69
  C:0DBEH         LINE#         72
  C:0DBEH         LINE#         73
  C:0DC0H         LINE#         74
  C:0DC2H         LINE#         75
  C:0DC4H         LINE#         76
  C:0DC6H         LINE#         77
  C:0DC9H         LINE#         78
  C:0DCBH         LINE#         80
  C:0DCEH         LINE#         81
  C:0DCEH         LINE#         83
  C:0DD0H         LINE#         85
  -------         ENDPROC       _EXTI_DEINIT
  -------         PROC          _EXTI_START
  D:0039H         SYMBOL        dev
  C:0CFBH         LINE#         89
  C:0D01H         LINE#         91
  C:0D09H         LINE#         93
  C:0D1AH         LINE#         95
  C:0D1AH         LINE#         96
  C:0D1CH         LINE#         97
  C:0D1EH         LINE#         100
  C:0D1EH         LINE#         101
  C:0D20H         LINE#         102
  C:0D22H         LINE#         104
  C:0D25H         LINE#         105
  C:0D25H         LINE#         107
  C:0D27H         LINE#         109
  -------         ENDPROC       _EXTI_START
  -------         PROC          _EXTI_STOP
  D:003CH         SYMBOL        dev
  C:0D28H         LINE#         113
  C:0D2EH         LINE#         115
  C:0D36H         LINE#         117
  C:0D47H         LINE#         119
  C:0D47H         LINE#         120
  C:0D49H         LINE#         121
  C:0D4BH         LINE#         124
  C:0D4BH         LINE#         125
  C:0D4DH         LINE#         126
  C:0D4FH         LINE#         128
  C:0D52H         LINE#         129
  C:0D52H         LINE#         131
BL51 BANKED LINKER/LOCATER V6.22.2.0                                                  05/24/2021  23:49:10  PAGE 6


  C:0D54H         LINE#         133
  -------         ENDPROC       _EXTI_STOP
  -------         PROC          _EXTI_GET_CONFIGURATION_WIZARD
  D:003FH         SYMBOL        dev
  D:0005H         SYMBOL        id
  C:0C8EH         LINE#         137
  C:0C94H         LINE#         138
  C:0C94H         LINE#         139
  C:0C9BH         LINE#         141
  C:0C9BH         LINE#         142
  C:0CA0H         LINE#         143
  C:0CA5H         LINE#         144
  C:0CAAH         LINE#         145
  C:0CAAH         LINE#         146
  C:0CACH         LINE#         149
  C:0CACH         LINE#         150
  C:0CB3H         LINE#         151
  C:0CB8H         LINE#         152
  C:0CBDH         LINE#         153
  C:0CC5H         LINE#         154
  C:0CC7H         LINE#         156
  C:0CCAH         LINE#         157
  C:0CCAH         LINE#         159
  C:0CCCH         LINE#         161
  -------         ENDPROC       _EXTI_GET_CONFIGURATION_WIZARD
  -------         ENDMOD        HAL_EXTI

  -------         MODULE        HAL_TIMER
  C:0000H         SYMBOL        _ICE_DUMMY_
  C:0003H         PUBLIC        _timer_reload
  D:0080H         PUBLIC        P0
  D:0090H         PUBLIC        P1
  D:00A0H         PUBLIC        P2
  D:00B0H         PUBLIC        P3
  C:0DD1H         PUBLIC        _timer_deinit
  D:00A8H         PUBLIC        IE
  D:00B8H         PUBLIC        IP
  C:0B6CH         PUBLIC        _timer_get_configuration_wizard
  D:0098H         PUBLIC        SCON
  D:0089H         PUBLIC        TMOD
  D:0088H         PUBLIC        TCON
  C:0CCDH         PUBLIC        _timer_start
  C:061AH         PUBLIC        _timer_init
  B:00A8H.1       PUBLIC        ET0
  B:0088H.5       PUBLIC        TF0
  B:00A8H.3       PUBLIC        ET1
  B:0088H.7       PUBLIC        TF1
  D:008CH         PUBLIC        TH0
  C:0D80H         PUBLIC        _timer_stop
  D:008DH         PUBLIC        TH1
  D:008AH         PUBLIC        TL0
  D:008BH         PUBLIC        TL1
  B:00B8H.1       PUBLIC        PT0
  B:00B8H.3       PUBLIC        PT1
  B:0088H.4       PUBLIC        TR0
  B:0088H.6       PUBLIC        TR1
  C:0C03H         PUBLIC        _timer_set_count
BL51 BANKED LINKER/LOCATER V6.22.2.0                                                  05/24/2021  23:49:10  PAGE 7


  C:0A35H         PUBLIC        _timer_set_time
  D:00D0H         PUBLIC        PSW
  C:0938H         SYMBOL        Com00B7
  C:0938H         SYMBOL        L?0184
  C:094BH         SYMBOL        L?0185
  C:094EH         SYMBOL        L?0186
  C:0957H         SYMBOL        L?0187
  C:0973H         SYMBOL        L?0188
  C:098BH         SYMBOL        L?0189
  C:099FH         SYMBOL        L?0190
  C:099FH         SYMBOL        L?0191
  C:09A8H         SYMBOL        L?0192
  C:09A8H         SYMBOL        L?0193
  C:09AFH         SYMBOL        L?0194
  -------         PROC          COM00B7
  -------         ENDPROC       COM00B7
  -------         PROC          _TIMER_INIT
  D:0001H         SYMBOL        dev
  C:061AH         LINE#         8
  C:061AH         LINE#         9
  C:062CH         LINE#         11
  C:062CH         LINE#         12
  C:0635H         LINE#         13
  C:063DH         LINE#         14
  C:063FH         LINE#         15
  C:0647H         LINE#         16
  C:0647H         LINE#         17
  C:0652H         LINE#         18
  C:0655H         LINE#         19
  C:0657H         LINE#         20
  C:065AH         LINE#         21
  C:065AH         LINE#         22
  C:0661H         LINE#         23
  C:0664H         LINE#         24
  C:0666H         LINE#         25
  C:0669H         LINE#         26
  C:0669H         LINE#         27
  C:0676H         LINE#         28
  C:0678H         LINE#         29
  C:067AH         LINE#         30
  C:067CH         LINE#         31
  C:067CH         LINE#         32
  C:0685H         LINE#         33
  C:0687H         LINE#         34
  C:0689H         LINE#         35
  C:068BH         LINE#         36
  C:068BH         LINE#         37
  C:0693H         LINE#         38
  C:069CH         LINE#         39
  C:06A0H         LINE#         40
  C:06A2H         LINE#         41
  C:06A4H         LINE#         42
  C:06A4H         LINE#         43
  C:06A7H         LINE#         44
  C:06AAH         LINE#         47
  C:06AAH         LINE#         48
  C:06B6H         LINE#         49
BL51 BANKED LINKER/LOCATER V6.22.2.0                                                  05/24/2021  23:49:10  PAGE 8


  C:06BEH         LINE#         50
  C:06C0H         LINE#         51
  C:06C8H         LINE#         52
  C:06C8H         LINE#         53
  C:06D0H         LINE#         54
  C:06D3H         LINE#         55
  C:06D5H         LINE#         56
  C:06D8H         LINE#         57
  C:06D8H         LINE#         58
  C:06E2H         LINE#         59
  C:06E5H         LINE#         60
  C:06E7H         LINE#         61
  C:06EAH         LINE#         62
  C:06EAH         LINE#         63
  C:06F4H         LINE#         64
  C:06F6H         LINE#         65
  C:06F8H         LINE#         66
  C:06FAH         LINE#         67
  C:06FAH         LINE#         68
  C:0703H         LINE#         69
  C:0705H         LINE#         70
  C:0707H         LINE#         71
  C:0709H         LINE#         72
  C:0709H         LINE#         73
  C:0711H         LINE#         74
  C:071CH         LINE#         75
  C:0720H         LINE#         76
  C:0722H         LINE#         77
  C:0724H         LINE#         78
  C:0724H         LINE#         79
  C:072EH         LINE#         80
  C:0731H         LINE#         81
  C:0731H         LINE#         82
  C:0734H         LINE#         83
  C:0736H         LINE#         85
  C:0739H         LINE#         86
  C:0739H         LINE#         88
  C:073BH         LINE#         90
  -------         ENDPROC       _TIMER_INIT
  -------         PROC          _TIMER_DEINIT
  D:0007H         SYMBOL        id
  C:0DD1H         LINE#         94
  C:0DD1H         LINE#         95
  C:0DD8H         LINE#         97
  C:0DD8H         LINE#         98
  C:0DDAH         LINE#         99
  C:0DDCH         LINE#         100
  C:0DDFH         LINE#         101
  C:0DE2H         LINE#         102
  C:0DE4H         LINE#         105
  C:0DE4H         LINE#         106
  C:0DE6H         LINE#         107
  C:0DE8H         LINE#         108
  C:0DEBH         LINE#         109
  C:0DEEH         LINE#         110
  C:0DF0H         LINE#         112
  C:0DF3H         LINE#         113
BL51 BANKED LINKER/LOCATER V6.22.2.0                                                  05/24/2021  23:49:10  PAGE 9


  C:0DF3H         LINE#         115
  C:0DF5H         LINE#         117
  -------         ENDPROC       _TIMER_DEINIT
  -------         PROC          _TIMER_START
  D:0042H         SYMBOL        dev
  C:0CCDH         LINE#         121
  C:0CD3H         LINE#         123
  C:0CDBH         LINE#         125
  C:0CE9H         LINE#         127
  C:0CE9H         LINE#         128
  C:0CEDH         LINE#         129
  C:0CEFH         LINE#         132
  C:0CEFH         LINE#         133
  C:0CF3H         LINE#         134
  C:0CF5H         LINE#         136
  C:0CF8H         LINE#         137
  C:0CF8H         LINE#         139
  C:0CFAH         LINE#         141
  -------         ENDPROC       _TIMER_START
  -------         PROC          _TIMER_STOP
  D:0045H         SYMBOL        dev
  C:0D80H         LINE#         145
  C:0D86H         LINE#         147
  C:0D8EH         LINE#         149
  C:0D9CH         LINE#         151
  C:0D9CH         LINE#         152
  C:0D9EH         LINE#         153
  C:0DA0H         LINE#         156
  C:0DA0H         LINE#         157
  C:0DA2H         LINE#         158
  C:0DA4H         LINE#         160
  C:0DA7H         LINE#         161
  C:0DA7H         LINE#         163
  C:0DA9H         LINE#         165
  -------         ENDPROC       _TIMER_STOP
  -------         PROC          _TIMER_RELOAD
  D:0001H         SYMBOL        dev
  C:0003H         LINE#         170
  C:0003H         LINE#         171
  C:000BH         LINE#         173
  C:000BH         LINE#         174
  C:0013H         LINE#         175
  C:0014H         LINE#         178
  C:0014H         LINE#         179
  C:001CH         LINE#         180
  C:001CH         LINE#         182
  C:001CH         LINE#         183
  -------         ENDPROC       _TIMER_RELOAD
  -------         PROC          _TIMER_SET_TIME
  D:0022H         SYMBOL        dev
  D:0025H         SYMBOL        time
  -------         DO            
  D:0005H         SYMBOL        temp8
  D:0027H         SYMBOL        temp32
  -------         ENDDO         
  C:0A35H         LINE#         189
  C:0A3FH         LINE#         192
BL51 BANKED LINKER/LOCATER V6.22.2.0                                                  05/24/2021  23:49:10  PAGE 10


  C:0A47H         LINE#         193
  C:0A47H         LINE#         194
  C:0A4FH         LINE#         195
  C:0A54H         LINE#         196
  C:0A57H         LINE#         197
  C:0A57H         LINE#         198
  C:0A60H         LINE#         199
  C:0A70H         LINE#         200
  C:0A72H         LINE#         201
  C:0A72H         LINE#         202
  C:0A7AH         LINE#         203
  C:0A7FH         LINE#         204
  C:0A82H         LINE#         205
  C:0A82H         LINE#         206
  C:0A93H         LINE#         207
  C:0AA7H         LINE#         208
  C:0AA7H         LINE#         209
  C:0AA7H         LINE#         210
  C:0AA9H         LINE#         211
  -------         ENDPROC       _TIMER_SET_TIME
  -------         PROC          _TIMER_SET_COUNT
  D:0001H         SYMBOL        dev
  D:004EH         SYMBOL        count
  -------         DO            
  D:0005H         SYMBOL        temp8
  -------         ENDDO         
  C:0C03H         LINE#         217
  C:0C07H         LINE#         219
  C:0C0FH         LINE#         220
  C:0C0FH         LINE#         221
  C:0C1AH         LINE#         222
  C:0C1DH         LINE#         223
  C:0C1DH         LINE#         224
  C:0C1FH         LINE#         225
  C:0C35H         LINE#         226
  C:0C37H         LINE#         227
  C:0C37H         LINE#         228
  C:0C47H         LINE#         229
  C:0C47H         LINE#         230
  C:0C47H         LINE#         231
  C:0C49H         LINE#         232
  -------         ENDPROC       _TIMER_SET_COUNT
  -------         PROC          _TIMER_GET_CONFIGURATION_WIZARD
  D:0048H         SYMBOL        dev
  D:0005H         SYMBOL        id
  C:0B6CH         LINE#         237
  C:0B72H         LINE#         238
  C:0B72H         LINE#         239
  C:0B79H         LINE#         241
  C:0B79H         LINE#         242
  C:0B7EH         LINE#         243
  C:0B83H         LINE#         244
  C:0B86H         LINE#         245
  C:0B86H         LINE#         246
  C:0B8BH         LINE#         247
  C:0B8BH         LINE#         248
  C:0B90H         LINE#         249
BL51 BANKED LINKER/LOCATER V6.22.2.0                                                  05/24/2021  23:49:10  PAGE 11


  C:0B90H         LINE#         250
  C:0B92H         LINE#         253
  C:0B92H         LINE#         254
  C:0B99H         LINE#         255
  C:0B9EH         LINE#         256
  C:0BA1H         LINE#         257
  C:0BA1H         LINE#         258
  C:0BA6H         LINE#         259
  C:0BA6H         LINE#         260
  C:0BABH         LINE#         261
  C:0BB3H         LINE#         262
  C:0BB5H         LINE#         264
  C:0BB8H         LINE#         265
  C:0BB8H         LINE#         267
  C:0BBAH         LINE#         269
  -------         ENDPROC       _TIMER_GET_CONFIGURATION_WIZARD
  -------         ENDMOD        HAL_TIMER

  -------         MODULE        HAL_UART
  C:0000H         SYMBOL        _ICE_DUMMY_
  D:0080H         PUBLIC        P0
  D:0090H         PUBLIC        P1
  D:00A0H         PUBLIC        P2
  D:00B0H         PUBLIC        P3
  D:00A8H         PUBLIC        IE
  D:0050H         PUBLIC        uart1_busy
  B:00A8H.4       PUBLIC        ES
  C:0484H         PUBLIC        _uart_config
  D:00B8H         PUBLIC        IP
  B:0098H.0       PUBLIC        RI
  B:0098H.1       PUBLIC        TI
  C:0DF6H         PUBLIC        _uart_deinit
  B:00B8H.4       PUBLIC        PS
  D:0087H         PUBLIC        PCON
  D:0099H         PUBLIC        SBUF
  D:0098H         PUBLIC        SCON
  D:0089H         PUBLIC        TMOD
  D:0088H         PUBLIC        TCON
  C:0AAAH         PUBLIC        _uart_get_configuration_wizard
  C:0BBBH         PUBLIC        _uart_string
  C:0B0DH         PUBLIC        _uart_char
  D:00E0H         PUBLIC        ACC
  B:0088H.7       PUBLIC        TF1
  D:008DH         PUBLIC        TH1
  B:0098H.3       PUBLIC        TB8
  B:00D0H.0       PUBLIC        P
  D:008BH         PUBLIC        TL1
  B:0098H.5       PUBLIC        SM2
  C:073CH         PUBLIC        _uart_init
  C:0E18H         PUBLIC        _uart_char_8
  B:0088H.6       PUBLIC        TR1
  C:0D55H         PUBLIC        _uart_char_9
  C:0E39H         PUBLIC        uart1_it_fun
  B:0098H.4       PUBLIC        REN
  D:00D0H         PUBLIC        PSW
  C:07F5H         SYMBOL        Com00DE
  C:07F5H         SYMBOL        L?0223
BL51 BANKED LINKER/LOCATER V6.22.2.0                                                  05/24/2021  23:49:10  PAGE 12


  C:07F5H         SYMBOL        L?0224
  C:07F8H         SYMBOL        L?0225
  C:0801H         SYMBOL        L?0226
  C:0801H         SYMBOL        L?0227
  C:0804H         SYMBOL        L?0228
  C:080DH         SYMBOL        L?0229
  C:0817H         SYMBOL        L?0230
  C:0820H         SYMBOL        L?0231
  C:0830H         SYMBOL        L?0232
  C:084BH         SYMBOL        L?0233
  C:084BH         SYMBOL        L?0234
  C:0857H         SYMBOL        L?0235
  C:085DH         SYMBOL        L?0236
  C:0866H         SYMBOL        L?0237
  C:0872H         SYMBOL        L?0238
  C:0872H         SYMBOL        L?0239
  C:087AH         SYMBOL        L?0240
  C:087CH         SYMBOL        L?0241
  C:0883H         SYMBOL        L?0242
  C:088FH         SYMBOL        L?0243
  C:089AH         SYMBOL        L?0244
  C:08A5H         SYMBOL        L?0245
  -------         PROC          COM00DE
  -------         ENDPROC       COM00DE
  -------         PROC          _UART_INIT
  D:0001H         SYMBOL        dev
  C:073CH         LINE#         16
  C:073CH         LINE#         17
  C:0744H         LINE#         19
  C:0744H         LINE#         20
  C:074AH         LINE#         21
  C:074CH         LINE#         22
  C:074EH         LINE#         23
  C:0750H         LINE#         24
  C:0750H         LINE#         25
  C:075AH         LINE#         26
  C:075CH         LINE#         27
  C:075EH         LINE#         28
  C:0760H         LINE#         29
  C:0760H         LINE#         30
  C:0768H         LINE#         31
  C:076AH         LINE#         32
  C:076CH         LINE#         33
  C:076EH         LINE#         34
  C:076EH         LINE#         35
  C:077AH         LINE#         36
  C:077DH         LINE#         37
  C:077FH         LINE#         38
  C:0782H         LINE#         39
  C:0782H         LINE#         40
  C:078CH         LINE#         41
  C:078EH         LINE#         42
  C:0790H         LINE#         43
  C:0792H         LINE#         44
  C:0792H         LINE#         45
  C:07A7H         LINE#         46
  C:07A7H         LINE#         47
BL51 BANKED LINKER/LOCATER V6.22.2.0                                                  05/24/2021  23:49:10  PAGE 13


  C:07AAH         LINE#         48
  C:07ACH         LINE#         49
  C:07ACH         LINE#         50
  C:07B4H         LINE#         51
  C:07B6H         LINE#         52
  C:07B6H         LINE#         53
  C:07BEH         LINE#         54
  C:07C0H         LINE#         55
  C:07C0H         LINE#         56
  C:07C8H         LINE#         57
  C:07C8H         LINE#         58
  C:07C8H         LINE#         59
  C:07CBH         LINE#         60
  C:07CEH         LINE#         61
  C:07D6H         LINE#         62
  C:07E3H         LINE#         63
  C:07E7H         LINE#         64
  C:07EAH         LINE#         65
  C:07EDH         LINE#         66
  C:07EFH         LINE#         68
  C:07F2H         LINE#         69
  C:07F2H         LINE#         70
  C:07F4H         LINE#         71
  -------         ENDPROC       _UART_INIT
  -------         PROC          _UART_DEINIT
  D:0007H         SYMBOL        id
  C:0DF6H         LINE#         75
  C:0DF6H         LINE#         76
  C:0DFAH         LINE#         78
  C:0DFAH         LINE#         79
  C:0DFCH         LINE#         80
  C:0DFEH         LINE#         81
  C:0E00H         LINE#         82
  C:0E03H         LINE#         83
  C:0E05H         LINE#         84
  C:0E08H         LINE#         85
  C:0E0AH         LINE#         86
  C:0E0DH         LINE#         87
  C:0E10H         LINE#         88
  C:0E12H         LINE#         90
  C:0E15H         LINE#         91
  C:0E15H         LINE#         92
  C:0E17H         LINE#         93
  -------         ENDPROC       _UART_DEINIT
  -------         PROC          _UART_CONFIG
  D:0008H         SYMBOL        dev
  D:000BH         SYMBOL        baud
  D:000FH         SYMBOL        check
  -------         DO            
  D:0010H         SYMBOL        temp1
  D:0011H         SYMBOL        temp2
  D:0012H         SYMBOL        res1
  D:0016H         SYMBOL        res2
  D:001AH         SYMBOL        der1
  D:001EH         SYMBOL        der2
  -------         ENDDO         
  C:0484H         LINE#         98
BL51 BANKED LINKER/LOCATER V6.22.2.0                                                  05/24/2021  23:49:10  PAGE 14


  C:0492H         LINE#         101
  C:04A0H         LINE#         102
  C:04A3H         LINE#         103
  C:04A3H         LINE#         104
  C:04B7H         LINE#         105
  C:04BDH         LINE#         106
  C:04C4H         LINE#         107
  C:04C6H         LINE#         108
  C:04CEH         LINE#         109
  C:04CEH         LINE#         110
  C:04CEH         LINE#         111
  C:04D3H         LINE#         112
  C:04D8H         LINE#         113
  C:04DDH         LINE#         114
  C:04E5H         LINE#         115
  C:04F1H         LINE#         116
  C:0500H         LINE#         117
  C:0516H         LINE#         118
  C:052FH         LINE#         119
  C:056FH         LINE#         120
  C:05AFH         LINE#         121
  C:05C5H         LINE#         122
  C:05D6H         LINE#         123
  C:05E6H         LINE#         124
  C:05E9H         LINE#         125
  C:05E9H         LINE#         126
  C:05F0H         LINE#         127
  C:05F8H         LINE#         128
  C:05FFH         LINE#         129
  C:05FFH         LINE#         130
  C:0608H         LINE#         131
  C:0610H         LINE#         132
  C:0617H         LINE#         133
  C:0617H         LINE#         134
  C:0617H         LINE#         135
  C:0619H         LINE#         136
  -------         ENDPROC       _UART_CONFIG
  -------         PROC          _UART_CHAR
  D:0001H         SYMBOL        dev
  D:0005H         SYMBOL        dat
  C:0B0DH         LINE#         142
  C:0B0DH         LINE#         143
  C:0B15H         LINE#         145
  C:0B15H         LINE#         146
  C:0B26H         LINE#         147
  C:0B26H         LINE#         148
  C:0B2AH         LINE#         149
  C:0B2CH         LINE#         150
  C:0B2EH         LINE#         151
  C:0B30H         LINE#         152
  C:0B30H         LINE#         153
  C:0B32H         LINE#         154
  C:0B32H         LINE#         155
  C:0B36H         LINE#         156
  C:0B38H         LINE#         157
  C:0B3AH         LINE#         158
  C:0B3CH         LINE#         159
BL51 BANKED LINKER/LOCATER V6.22.2.0                                                  05/24/2021  23:49:10  PAGE 15


  C:0B3CH         LINE#         160
  C:0B3EH         LINE#         161
  C:0B3EH         LINE#         162
  C:0B40H         LINE#         163
  C:0B42H         LINE#         164
  C:0B42H         LINE#         165
  C:0B44H         LINE#         166
  C:0B46H         LINE#         167
  C:0B49H         LINE#         168
  C:0B49H         LINE#         169
  C:0B4BH         LINE#         170
  C:0B56H         LINE#         171
  C:0B59H         LINE#         172
  C:0B5FH         LINE#         173
  C:0B5FH         LINE#         174
  C:0B62H         LINE#         175
  C:0B64H         LINE#         176
  C:0B64H         LINE#         177
  C:0B66H         LINE#         179
  C:0B69H         LINE#         180
  C:0B69H         LINE#         181
  C:0B6BH         LINE#         182
  -------         ENDPROC       _UART_CHAR
  -------         PROC          _UART_CHAR_8
  D:0001H         SYMBOL        dev
  D:0005H         SYMBOL        dat
  C:0E18H         LINE#         187
  C:0E18H         LINE#         188
  C:0E18H         LINE#         189
  C:0E1DH         LINE#         191
  C:0E1DH         LINE#         192
  C:0E1DH         LINE#         193
  C:0E23H         LINE#         194
  C:0E26H         LINE#         195
  C:0E2CH         LINE#         196
  C:0E2CH         LINE#         197
  C:0E2FH         LINE#         198
  C:0E31H         LINE#         199
  C:0E31H         LINE#         200
  C:0E33H         LINE#         202
  C:0E36H         LINE#         203
  C:0E36H         LINE#         204
  C:0E38H         LINE#         205
  -------         ENDPROC       _UART_CHAR_8
  -------         PROC          _UART_CHAR_9
  D:0001H         SYMBOL        dev
  D:0005H         SYMBOL        dat
  D:0035H         SYMBOL        bit9
  C:0D55H         LINE#         210
  C:0D55H         LINE#         211
  C:0D5AH         LINE#         213
  C:0D5AH         LINE#         214
  C:0D5EH         LINE#         215
  C:0D60H         LINE#         216
  C:0D62H         LINE#         217
  C:0D64H         LINE#         218
  C:0D64H         LINE#         219
BL51 BANKED LINKER/LOCATER V6.22.2.0                                                  05/24/2021  23:49:10  PAGE 16


  C:0D64H         LINE#         220
  C:0D6AH         LINE#         221
  C:0D6DH         LINE#         222
  C:0D73H         LINE#         223
  C:0D73H         LINE#         224
  C:0D76H         LINE#         225
  C:0D78H         LINE#         226
  C:0D78H         LINE#         227
  C:0D7AH         LINE#         229
  C:0D7DH         LINE#         230
  C:0D7DH         LINE#         231
  C:0D7FH         LINE#         232
  -------         ENDPROC       _UART_CHAR_9
  -------         PROC          _UART_STRING
  D:002BH         SYMBOL        dev
  D:002EH         SYMBOL        str
  C:0BBBH         LINE#         237
  C:0BC1H         LINE#         239
  C:0BDAH         LINE#         240
  C:0BDFH         LINE#         241
  C:0BE8H         LINE#         242
  C:0BEBH         LINE#         243
  C:0BEDH         LINE#         244
  C:0BEDH         LINE#         246
  C:0BF2H         LINE#         247
  C:0BFBH         LINE#         248
  C:0BFEH         LINE#         249
  C:0C00H         LINE#         251
  C:0C00H         LINE#         253
  C:0C02H         LINE#         254
  -------         ENDPROC       _UART_STRING
  -------         PROC          _UART_GET_CONFIGURATION_WIZARD
  D:004BH         SYMBOL        dev
  D:0005H         SYMBOL        id
  -------         DO            
  D:0007H         SYMBOL        res
  -------         ENDDO         
  C:0AAAH         LINE#         258
  C:0AB0H         LINE#         262
  C:0AB0H         LINE#         263
  C:0AB4H         LINE#         265
  C:0AB4H         LINE#         266
  C:0ABEH         LINE#         268
  C:0AD0H         LINE#         269
  C:0AD4H         LINE#         271
  C:0AD9H         LINE#         272
  C:0ADEH         LINE#         273
  C:0AE3H         LINE#         274
  C:0AEBH         LINE#         275
  C:0B00H         LINE#         276
  C:0B05H         LINE#         277
  C:0B07H         LINE#         279
  C:0B0AH         LINE#         280
  C:0B0AH         LINE#         281
  C:0B0CH         LINE#         282
  -------         ENDPROC       _UART_GET_CONFIGURATION_WIZARD
  -------         PROC          UART1_IT_FUN
BL51 BANKED LINKER/LOCATER V6.22.2.0                                                  05/24/2021  23:49:10  PAGE 17


  C:0E39H         LINE#         287
  C:0E39H         LINE#         288
  C:0E3CH         LINE#         289
  C:0E3EH         LINE#         290
  C:0E41H         LINE#         294
  C:0E41H         LINE#         295
  C:0E44H         LINE#         296
  C:0E46H         LINE#         300
  C:0E46H         LINE#         301
  -------         ENDPROC       UART1_IT_FUN
  -------         ENDMOD        HAL_UART

  -------         MODULE        ?C?FPMUL
  C:0026H         PUBLIC        ?C?FPMUL
  -------         ENDMOD        ?C?FPMUL

  -------         MODULE        ?C?FPDIV
  C:012FH         PUBLIC        ?C?FPDIV
  -------         ENDMOD        ?C?FPDIV

  -------         MODULE        ?C?FCAST
  C:01D6H         PUBLIC        ?C?FCASTC
  C:01D1H         PUBLIC        ?C?FCASTI
  C:01CCH         PUBLIC        ?C?FCASTL
  -------         ENDMOD        ?C?FCAST

  -------         MODULE        ?C?CASTF
  C:020AH         PUBLIC        ?C?CASTF
  -------         ENDMOD        ?C?CASTF

  -------         MODULE        ?C?CLDPTR
  C:028BH         PUBLIC        ?C?CLDPTR
  -------         ENDMOD        ?C?CLDPTR

  -------         MODULE        ?C?CLDOPTR
  C:02A4H         PUBLIC        ?C?CLDOPTR
  -------         ENDMOD        ?C?CLDOPTR

  -------         MODULE        ?C?CSTPTR
  C:02D1H         PUBLIC        ?C?CSTPTR
  -------         ENDMOD        ?C?CSTPTR

  -------         MODULE        ?C?ILDOPTR
  C:02E3H         PUBLIC        ?C?ILDOPTR
  -------         ENDMOD        ?C?ILDOPTR

  -------         MODULE        ?C?ISTOPTR
  C:031BH         PUBLIC        ?C?ISTOPTR
  -------         ENDMOD        ?C?ISTOPTR

  -------         MODULE        ?C?LMUL
  C:0348H         PUBLIC        ?C?LMUL
  -------         ENDMOD        ?C?LMUL

  -------         MODULE        ?C?ULDIV
  C:03D3H         PUBLIC        ?C?ULDIV
  -------         ENDMOD        ?C?ULDIV
BL51 BANKED LINKER/LOCATER V6.22.2.0                                                  05/24/2021  23:49:10  PAGE 18



  -------         MODULE        ?C?SLDIV
  C:0C4AH         PUBLIC        ?C?SLDIV
  -------         ENDMOD        ?C?SLDIV

  -------         MODULE        ?C?LNEG
  C:0465H         PUBLIC        ?C?LNEG
  -------         ENDMOD        ?C?LNEG

  -------         MODULE        ?C?ULCMP
  C:0473H         PUBLIC        ?C?ULCMP
  -------         ENDMOD        ?C?ULCMP

Program Size: data=82.0 xdata=0 code=3673
LINK/LOCATE RUN COMPLETE.  0 WARNING(S),  0 ERROR(S)
